:10000000010A6400030AD20C0200FB0C0600730014
:1000100074007200B202710046056606100A110AE9
:100020001B0A320C930114014307170A180A1B0A12
:1000300046050300340A66071E0A1F0A340A320CFA
:10004000930114014307250A260A340A07052705E8
:1000500027062B0A2C0A280A310C88000307310ACC
:10006000320A340A4605030001023C007D001402F6
:100070003F0013023E001F02800F30001D02800F60
:1000800090004307450A1C029E000307480A4A0ADB
:1000900046054B0A4604040C3F001F02F101110201
:1000A0004306530A540A550A600A12023C007D00B6
:1000B000FC06FD001C02F3010306B4021D02F4015C
:1000C00014023F0013023E001F02800F3C00800C10
:1000D0009C0043076D0A320C9E000307700A710AE8
:1000E000820A14023F0013023E001F02800F3C00F0
:1000F000810C9C0043077E0A2D0C9E000307810A99
:10010000820A9E0A7202B20214023F0013023E00EB
:100110001F02800F3C00800C9C004307910A320CA8
:100120009E000307940A950A9A0A2C0C3300010CCE
:1001300034009E0A320C3300000C340004000D0A17
:02014000000AB3
:08020000FF0FFF0FFF0FFF0FBE
:021FFE00EF0FE3
:00000001FF
