:10000000010A6400030AD20C0200FB0C0600730014
:1000100074007200B202710066060F0A100A190A13
:10002000320C930114014307160A170A190A4605F0
:10003000030001023C007D0014023F0013023E0059
:100040001F02800F30001D02800F900043072A0A14
:100050001C029E0003072D0A2F0A4605300A46049B
:10006000040C3F001F02F10111024306380A390A4D
:100070003A0A450A12023C007D00FC06FD001C0203
:10008000F3010306B4021D02F40114023F0013023F
:100090003E001F02800F3C00800C9C004307520A68
:1000A000320C9E000307550A560A670A14023F00E5
:1000B00013023E001F02800F3C00810C9C0043078E
:1000C000630A2D0C9E000307660A670A830A720200
:1000D000B20214023F0013023E001F02800F3C00D8
:1000E000800C9C004307760A320C9E000307790AB5
:1000F0007A0A7F0A2C0C3300010C3400830A320C7C
:0C0100003300000C340004000C0A000A5C
:08020000FF0FFF0FFF0FFF0FBE
:021FFE00EF0FE3
:00000001FF
