:040000005FEF2AF094
:105418001200600ED36E400E9B6E1200026E025098
:1054280045EC2AF012003CEC2AF003EC2DF000EFDA
:1054380000F0026E8C94025045EC2AF08C84120025
:10544800045012EC2AF0035012EC2AF012007F0EDE
:10545800CB6E000ECC6E9E92000ECA6E1200400EED
:10546800C76E000EC66E010EC86E9496C69A1200DC
:1054780033EC2AF07DEC2AF00DEC2AF02BEC2AF024
:105488001200016E01C0C9FF9EA64DEF2AF04FEF32
:105498002AF048EF2AF09E96C95012008C94DA0E32
:1054A80012EC2AF0948A8C84000E45EC2AF0036EE4
:1054B800949A0350120000EE60F02A0EEE6AE80695
:1054C800FDE15F6A5E6A000EF86E000117EF2AF0D0
:1054D8000A6E0A28036E07C004F00728056E0A50F2
:1054E800F7EC2AF008C003F009C004F024EC2AF015
:1054F8001200000E8D6E000E8C6E000E896E000E6E
:105508008A6E000E8B6E070E966E92689368D70EA1
:10551800946E780E956E7E681F0E7F6E000E7C6E00
:10552800F18E12000C6E0C500824036E07C004F0B4
:1055380007C005F00C50F7EC2AF008C00BF0ABEFF1
:105548002AF009C003F00AC004F024EC2AF00B0684
:105558000B28D8A4B2EF2AF0B4EF2AF0A5EF2AF06E
:10556800120014BEC2EF2AF0145006E11304D8B09A
:10557800C0EF2AF0C2EF2AF0D0EF2AF013C015F0DE
:1055880014C016F0151E161E154A162A15C013F05B
:1055980016C014F0D4EF2AF013C013F014C014F09E
:1055A8001200000E106E000E0F6EE6EF2AF00EC00D
:1055B80001F0026A0CC003F00DC004F09EEC2CF060
:1055C8000F4A102A0F500A24D96E10500B20DA6E99
:1055D800DF500E6E0E50D8A4F4EF2AF0F6EF2AF042
:1055E800DBEF2AF01200066E2A0E1DEC2AF0000EE0
:1055F80012EC2AF0065012EC2AF0000E12EC2AF0F7
:10560800035012EC2AF02B0E1DEC2AF0000E12ECBF
:105618002AF0045012EC2AF0000E12EC2AF0055081
:1056280012EC2AF02C0E1DEC2AF01200500E0A6E15
:10563800000E096EA00E036E000E046E800E056E3D
:10564800000EF7EC2AF02FEF2BF007C003F008C08C
:1056580004F024EC2AF00906D8A00A06092806E175
:105668000A28D8A43AEF2BF03CEF2BF029EF2BF0C7
:10567800120001C003F002C004F045EF2BF0014A0C
:10568800022A01C0F6FF02C0F7FFF86A050EF764A8
:1056980003D00800F55005D0F6CFE9FFF7CFEAFFB1
:1056A800EF500009D8A45BEF2BF05DEF2BF043EF30
:1056B8002BF00350015C016E04500258026E120078
:1056C8005C0E00018A6F000E8B6F58C08CF059C0B9
:1056D8008DF0000E906F000E8F6F000E966F000E0B
:1056E800956F8C0E506E000E516E5AC052F05BC012
:1056F80053F08A0E546E000E556E8DEC2BF000019F
:105708008F515824D96E90515920DA6E000EDF6EF1
:10571800120052C056F053C057F0000E0001616FDE
:10572800000E606FABEF2BF050C040F051C041F05D
:10573800560E426E000E436E54C044F055C045F0FC
:1057480087EC2FF04050000160274150612356C07C
:10575800F6FF57C0F7FF0800F5500009D8A4B7EFC7
:105768002BF0B9EF2BF098EF2BF060C050F061C030
:1057780051F01200106E105008240C6E0C04036EC9
:1057880007C004F0075009240D6E0D04056E105073
:10579800F7EC2AF0000E0E6EE7EF2BF0000E0F6EFE
:1057A800DDEF2BF00AC003F00BC004F024EC2AF064
:1057B8000F2A09500F5CD8A0E4EF2BF0E6EF2BF08E
:1057C800D6EF2BF00E2A08500E5CD8A0EEEF2BF087
:1057D800F0EF2BF0D2EF2BF01200026EC6BAF7EF03
:1057E8002BF0F9EF2BF03CEF2CF00250040D010EDA
:1057F800F326000EF422E00EF324F66E7F0EF4205A
:10580800F76E0800F5CFC7FF0250040DE00EF32431
:10581800F66E7F0EF420F76E0800F5CFC6FF000E77
:10582800C56E0250040D020EF326000EF422E00E9F
:10583800F324F66E7F0EF420F76E0800F5CFC8FF4C
:105848000250040D030EF326000EF422E00EF3249A
:10585800F66E7F0EF420F76E0800F5CF01F00146D2
:105868000146014694500118F70B0118946EC68A38
:1058780012005EA042EF2CF044EF2CF04EEF2CF01B
:1058880013C00AF014C00BF011C00CF012C00DF0D8
:10589800D5EC2AF016BE53EF2CF055EF2CF05BEF49
:1058A8002CF015C01AF016C01BF05FEF2CF0000E9C
:1058B8001B6E000E1A6E000E196E000E186E71EF38
:1058C8002CF0000E026E200E016E11C003F012C003
:1058D80004F09EEC2CF0184A192A1A50185C19503A
:1058E800800A176E1B50800A1758D8A07EEF2CF03C
:1058F80080EF2CF065EF2CF05EB085EF2CF087EF91
:105908002CF091EF2CF013C00AF014C00BF011C06A
:105918000CF012C00DF0D5EC2AF013C001F014C041
:1059280002F03DEC2BF01A500124116E1B5002209E
:10593800126E120003500410D8B4A5EF2CF0A7EF94
:105948002CF0B0EF2CF003500410D8A4AEEF2CF0DC
:10595800B0EF2CF0B5EF2CF001500CEC2AF002EF70
:105968002DF020EE09F00350D9260450DA22DE503B
:10597800DE10D8B4C2EF2CF0C4EF2CF0DFEF2CF01F
:1059880020EE09F00350D9260450DA2210EE03F075
:105998000350E1260450E222DE50E65CE650800A1D
:1059A800096EDE50800A0958D8B0DDEF2CF0DFEF21
:1059B8002CF002EF2DF020EE03F00350D92604500E
:1059C800DA22DECF05F0DDCF06F003C0D9FF04C030
:1059D800DAFFDECF07F0DDCF08F005500724D96ED7
:1059E80006500820DA6E01C0DFFF20EE03F00350F6
:1059F800D9260450DA22DE2A000EDD221200000E1B
:105A08000001A26F000EA16F8C8E000EF1EC2BF03E
:105A1800CFEC32F0000E086E000E076E1AEC2BF079
:105A2800000E0001A36F010EA06F0001A305076E11
:105A3800A00E086EA1C009F0A2C00AF0060E96ECEE
:105A48002AF0A3C022F0EB0E236E7F0E246E070E01
:105A5800266EE00E256EA1C027F0A2C028F0020E27
:105A6800296E060E83EC2DF00001A3510E0F076E70
:105A7800A00E086EA1C009F0A2C00AF0060E96ECAE
:105A88002AF00001A051A327A351D8B44EEF2DF05E
:105A980050EF2DF059EF2DF0720EA319D8A457EF3F
:105AA8002DF059EF2DF05CEF2DF0A06DA051A3273C
:105AB80052EC2AF000019F6F970E586E000E596E37
:105AC800F80E5A6E7F0E5B6E9FC05CF05D6A64ECE8
:105AD8002BF07C0E00019F19D8B475EF2DF077EFED
:105AE8002DF07FEF2DF0CFEC32F0A1C007F0A2C06F
:105AF80008F01AEC2BF0040019EF2DF012002E6EAE
:105B08002EC032F022C031F023C001F024C002F0D0
:105B18003DEC2BF001C02CF002C02DF0000E306ED1
:105B2800000E2F6E05EF2EF02950050DF3CF2AF049
:105B3800F4CF2BF032502A26000E2B222BBEAEEFCC
:105B48002DF02B5009E1A10E2A5CD8A0AEEF2DF064
:105B5800B0EF2DF0D8EF2DF0000E326E2950070D62
:105B6800F3503124030F316E800E3164BEEF2DF0F7
:105B7800C0EF2DF0C2EF2DF0800E316E2F50232490
:105B88002A6E305024202B6E2AC0F6FF2BC0F7FF58
:105B98000800F550200AD8A4D4EF2DF0D6EF2DF048
:105BA800D8EF2DF003EF2EF031C011F02F50232441
:105BB8002A6E305024202B6E2AC0F6FF2BC0F7FF28
:105BC8000800F5CF12F025C013F026C014F027C046
:105BD80015F028C016F029C017F0325061EC30F0EB
:105BE8002950060DF3503224326EA00E3264FFEFB6
:105BF8002DF001EF2EF003EF2EF0A00E326E2F4A9B
:105C0800302A2C502F5C2D503058D8A00EEF2EF093
:105C180010EF2EF098EF2DF01200000E126E08BE55
:105C28001AEF2EF018EF2EF02CEF2EF0081E071E9C
:105C3800061E051E041E031E021E016C000E022213
:105C4800032204220522062207220822010E126ED0
:105C580010BE33EF2EF031EF2EF043EF2EF0101E72
:105C68000F1E0E1E0D1E0C1E0B1E0A1E096C000EAA
:105C78000A220B220C220D220E220F22102209507A
:105C88000A100B100C100D100E100F101010D8B4B5
:105C980050EF2EF052EF2EF09AEF2EF0010E116E0B
:105CA80060EF2EF0D89009360A360B360C360D36D2
:105CB8000E360F361036112A10AE65EF2EF067EF4C
:105CC8002EF056EF2EF00950015C0A5002580B5086
:105CD80003580C5004580D5005580E5006580F50D4
:105CE800075810500858D8A07CEF2EF07EEF2EF001
:105CF8008EEF2EF00950015E0A50025A0B50035ADB
:105D08000C50045A0D50055A0E50065A0F50075A97
:105D18001050085AD89010320F320E320D320C3211
:105D28000B320A320932112E67EF2EF01250D8B416
:105D3800A0EF2EF0A2EF2EF0B2EF2EF0081E071EF5
:105D4800061E051E041E031E021E016C000E022202
:105D580003220422052206220722082201C001F09C
:105D680002C002F003C003F004C004F005C005F04F
:105D780006C006F007C007F008C008F01200000EC1
:105D8800126E10BECCEF2EF0CAEF2EF0DEEF2EF022
:105D9800101E0F1E0E1E0D1E0C1E0B1E0A1E096C59
:105DA800000E0A220B220C220D220E220F22102294
:105DB800010E126E08BEE5EF2EF0E3EF2EF0F7EFBE
:105DC8002EF0081E071E061E051E041E031E021EB8
:105DD800016C000E02220322042205220622072259
:105DE8000822010E121A20EE13F0070EDE6AE806EA
:105DF800FDE209500A100B100C100D100E100F10B8
:105E08001010D8B40AEF2FF00CEF2FF05EEF2FF040
:105E1800010E116E1AEF2FF0D89009360A360B369C
:105E28000C360D360E360F361036112A10AE1FEF0F
:105E38002FF021EF2FF010EF2FF0D89013361436F3
:105E4800153616361736183619361A360950015CC3
:105E58000A5002580B5003580C5004580D5005585E
:105E68000E5006580F50075810500858D8A03FEF4A
:105E78002FF041EF2FF052EF2FF00950015E0A503A
:105E8800025A0B50035A0C50045A0D50055A0E5022
:105E9800065A0F50075A1050085A1380D8901032DB
:105EA8000F320E320D320C320B320A320932112EF9
:105EB80021EF2FF01250D8B464EF2FF066EF2FF0D7
:105EC80076EF2FF01A1E191E181E171E161E151E05
:105ED800141E136C000E14221522162217221822E3
:105EE80019221A2213C001F014C002F015C003F0E1
:105EF80016C004F017C005F018C006F019C007F066
:105F08001AC008F0120042C0D9FF43C0DAFFDECF42
:105F1800F6FFDDCFF7FF0800F550250AD8A497EF64
:105F28002FF099EF2FF045EF30F042C0D9FF43C072
:105F3800DAFFDE2A000EDD22000E0001636F000E7C
:105F4800626F62C05EF063C05FF06469656942C0F9
:105F5800D9FF43C0DAFFDECFF6FFDDCFF7FF080039
:105F6800F550640AD8B4BBEF2FF0BDEF2FF0CFEF98
:105F78002FF042C0D9FF43C0DAFFDECFF6FFDDCFF6
:105F8800F7FF0800F550690AD8A4CDEF2FF0CFEF3E
:105F98002FF00FEF30F042C0D9FF43C0DAFFDE2AFE
:105FA800000EDD2244C0D9FF45C0DAFFDFCF46F03E
:105FB800020EDE26DFCF47F0000EDD2246C0D9FFF5
:105FC80047C0DAFFDECF48F0DDCF49F0000E49BE0A
:105FD800FF0E4A6E4B6E4C6E4D6E4E6E4F6E40C04D
:105FE8001CF041C01DF048C01EF049C01FF04AC057
:105FF80020F04BC021F04CC022F04DC023F04EC021
:1060080024F04FC025F060EC31F01CC040F01DC0FA
:1060180041F060EF30F042C0D9FF43C0DAFFDECF75
:10602800F6FFDDCFF7FF0800F550250AD8A41FEFCB
:1060380030F021EF30F038EF30F042C0D9FF43C0E4
:10604800DAFFDE2A000EDD22000E026E250E016E3A
:1060580040C003F041C004F09EEC2CF0000E416EED
:10606800010E406E60EF30F042C0D9FF43C0DAFF46
:10607800DE2A000EDD22000E416E000E406E60EF3B
:1060880030F042C0D9FF43C0DAFFDECFF6FFDDCFE4
:10609800F7FF0800F550016E026A40C003F041C0E6
:1060A80004F09EEC2CF042C0D9FF43C0DAFFDE2A90
:1060B800000EDD2232EF30F012001F6EA00E1F60BE
:1060C80068EF30F06AEF30F05FEF31F07F0E116467
:1060D80070EF30F072EF30F074EF30F05FEF31F0C6
:1060E8001750D8A47AEF30F07CEF30F07EEF30F024
:1060F800010E176E1F0E126484EF30F086EF30F039
:106108008EEF30F07E0E12648CEF30F08EEF30F0B0
:1061180090EF30F03F0E126E000E216E530E12609B
:1061280098EF30F09AEF30F0BEEF30F0600E186E56
:10613800FF0E196E21C01AF01B6A1ABE1B061250F8
:10614800050D050E1C6E7E0E1D6EF3501C26F450B8
:106158001D221A501C261B501D2218501C2619508F
:106168001D221CC0F6FF1DC0F7FF0800F5CF1EF06A
:10617800E0EF30F0610E186EFE0E196E21C01AF0B5
:106188001B6A1ABE1B061250050D040E1C6E7F0EEC
:106198001D6EF3501C26F4501D221A501C261B504D
:1061A8001D2218501C2619501D221CC0F6FF1DC0A8
:1061B800F7FF0800F5CF1EF0000E206E1EA0E7EFD7
:1061C80030F0E9EF30F013EF31F01704D8A4EFEF17
:1061D80030F0F1EF30F0FEEF30F020501124076E70
:1061E80013C008F014C009F021501F246CEC2AF0E9
:1061F80047EF31F020501702F3501124076E17C0F3
:1062080008F017C009F013C00AF014C00BF02150B1
:106218001702F3501F24BEEC2BF047EF31F0135058
:10622800151809E114501618D8B41DEF31F01FEFF6
:1062380031F047EF31F01704D8A425EF31F027EFFC
:1062480031F034EF31F020501124076E15C008F0FA
:1062580016C009F021501F246CEC2AF047EF31F0EA
:1062680020501702F3501124076E17C008F017C00A
:1062780009F015C00AF016C00BF021501702F350B0
:106288001F24BEEC2BF0202AD8901E322050800A02
:10629800790FD8A052EF31F054EF31F0E2EF30F03F
:1062A800212A2150800A7B0FD8A05DEF31F05FEFE3
:1062B80031F092EF30F012001EC036F01FC037F0F8
:1062C80020C038F021C039F022C03AF023C03BF09A
:1062D80024C03CF025C03DF03DBE75EF31F078EFAD
:1062E80031F0010E79EF31F0000E346E356A34501A
:1062F8003510D8B482EF31F084EF31F094EF31F0FB
:106308003D1E3C1E3B1E3A1E391E381E371E366C7B
:10631800000E3722382239223A223B223C223D22E3
:10632800000165BF9AEF31F09CEF31F09DEF31F03D
:106338005E9265BFAAEF31F0655106E16405D8B0F9
:10634800A8EF31F0AAEF31F0B0EF31F0000E316E66
:10635800010E306EB4EF31F064C030F065C031F03A
:1063680062C032F063C033F034503510D8A4BFEFA8
:1063780031F0C1EF31F0C8EF31F05EA4C6EF31F073
:10638800C8EF31F0CBEF31F03206D8A03306000E5B
:106398003F6E1F0E3E6E000E856F4FEF32F03E06C9
:1063A800D8A03F06660E3E24D96E000E3F20DA6E56
:1063B80036C001F037C002F038C003F039C004F02D
:1063C8003AC005F03BC006F03CC007F03DC008F0FD
:1063D8000A0E096E000E0A6E000E0B6E000E0C6E91
:1063E800000E0D6E000E0E6E000E0F6E000E106E7B
:1063F80011EC2EF001C026F002C027F003C028F0EF
:1064080004C029F005C02AF006C02BF007C02CF004
:1064180008C02DF026C013F028C014F0B5EC2AF0FF
:106428001350300FDF6E3006D8A031063206D8A0E0
:10643800330636C001F037C002F038C003F039C067
:1064480004F03AC005F03BC006F03CC007F03DC080
:1064580008F00A0E096E000E0A6E000E0B6E000E92
:106468000C6E000E0D6E000E0E6E000E0F6E000EFE
:10647800106EC3EC2EF001C036F002C037F003C036
:1064880038F004C039F005C03AF006C03BF007C048
:106498003CF008C03DF03FBE5AEF32F03F5008E1F3
:1064A8003E04D8A05AEF32F05CEF32F08CEF32F0B5
:1064B80036503710381039103A103B103C103D1048
:1064C800D8A469EF32F06BEF32F0D3EF31F031BE80
:1064D80078EF32F0315006E13004D8B076EF32F080
:1064E80078EF32F0D3EF31F033BE83EF32F0335030
:1064F80008E13204D8A083EF32F085EF32F08CEF58
:1065080032F05EB28AEF32F08CEF32F0D3EF31F036
:1065180034503510D8A493EF32F095EF32F09CEF59
:1065280032F05EA49AEF32F09CEF32F0BAEF32F01C
:106538003E06D8A03F0634503510D8A4A6EF32F056
:10654800A8EF32F0AEEF32F0000E2F6E2B0E2E6E4B
:10655800B2EF32F0000E2F6E2D0E2E6E660E3E2418
:10656800D96E000E3F20DA6E2EC0DFFF1CC011F07E
:106578001DC012F0660E3E24136E000E3F20146EEE
:1065880032C015F033C016F03DEC2CF011C01CF0F1
:1065980012C01DF012008C92050E046E0F0E036ED1
:1065A800F10EE82EFED7032EFCD7042EFAD700F002
:1065B8008C82050E046E0F0E036EF10EE82EFED7C8
:1065C800032EFCD7042EFAD700F08C90010E1DEC98
:1065D8002AF0050E046E0F0E036EF10EE82EFED79C
:1065E800032EFCD7042EFAD700F0110E1DEC2AF06A
:1065F800050E046E0F0E036EF10EE82EFED7032E65
:10660800FCD7042EFAD700F0B10E1DEC2AF0E40EE8
:10661800F66E7F0EF76E0800F55012EC2AF0E50EC4
:10662800F66E7F0EF76E0800F55012EC2AF0E60EB3
:10663800F66E7F0EF76E0800F55012EC2AF0B20ED7
:106648001DEC2AF0E40EF66E7F0EF76E0800F5508A
:1066580012EC2AF0E50EF66E7F0EF76E0800F55084
:1066680012EC2AF0E60EF66E7F0EF76E0800F55073
:1066780012EC2AF0B30E1DEC2AF0E40EF66E7F0E33
:10668800F76E0800F55012EC2AF0E50EF66E7F0E54
:10669800F76E0800F55012EC2AF0E60EF66E7F0E43
:1066A800F76E0800F55012EC2AF0B40E1DEC2AF033
:1066B800070E12EC2AF0C00E1DEC2AF0A20E12EC06
:1066C8002AF0020E12EC2AF0840E12EC2AF0C10E07
:1066D8001DEC2AF0C50E12EC2AF0C20E1DEC2AF0B1
:1066E8000A0E12EC2AF0000E12EC2AF0C30E1DEC72
:1066F8002AF08A0E12EC2AF02A0E12EC2AF0C40EA6
:106708001DEC2AF08A0E12EC2AF0EE0E12EC2AF09A
:10671800C50E1DEC2AF00E0E12EC2AF0200E1DEC10
:106728002AF0360E1DEC2AF0600E12EC2AF03A0E12
:106738001DEC2AF0050E12EC2AF02A0E1DEC2AF0A8
:10674800000E12EC2AF0000E12EC2AF0000E12ECE9
:106758002AF07F0E12EC2AF02B0E1DEC2AF0000E08
:1067680012EC2AF0000E12EC2AF0000E12EC2AF0BD
:106778009F0E12EC2AF0E00E1DEC2AF0020E12EC2D
:106788002AF01C0E12EC2AF0070E12EC2AF0120E58
:1067980012EC2AF0370E12EC2AF0320E12EC2AF024
:1067A800290E12EC2AF02D0E12EC2AF0290E12EC0A
:1067B8002AF0250E12EC2AF02B0E12EC2AF0390ED4
:1067C80012EC2AF0000E12EC2AF0010E12EC2AF05C
:1067D800030E12EC2AF0100E12EC2AF0E10E1DEC5A
:1067E8002AF0030E12EC2AF01D0E12EC2AF0070E06
:1067F80012EC2AF0060E12EC2AF02E0E12EC2AF0F9
:106808002C0E12EC2AF0290E12EC2AF02D0E12ECA6
:106818002AF02E0E12EC2AF02E0E12EC2AF0370E69
:1068280012EC2AF03F0E12EC2AF0000E12EC2AF0BD
:10683800000E12EC2AF0020E12EC2AF0100E12ECE6
:106848002AF0130E1DEC2AF0680E036EE40EE82EF3
:10685800FED7032EFCD700F000F0290E1DEC2AF01D
:10686800680E036EE40EE82EFED7032EFCD700F068
:1068780000F08C8E120000000000000000000000F4
:106888000000000000000000000000000000000000
:1068980000000000000000000000000000000000F0
:1068A80000000000000000000000000000000000E0
:1068B80000000000000000000000000000000000D0
:107E0800000000005F00000007000700147F147FD7
:107E180014242A7F2A1223130864623649562050F4
:107E28000008070300001C2241000041221C002A10
:107E38001C7F1C2A08083E080800807030000808CB
:107E4800080808000060600020100804023E51493C
:107E5800453E00427F400072494949462141494D0B
:107E6800331814127F1027454545393C4A49493192
:107E780041211109073649494936464949291E0011
:107E880000140000004034000000081422411414BB
:107E9800141414004122140802015909063E415DD8
:107EA800594E7C1211127C7F494949363E41414165
:107EB800227F4141413E7F494949417F09090901E2
:107EC8003E414151737F0808087F00417F410020EF
:107ED80040413F017F081422417F404040407F02DB
:107EE8001C027F7F0408107F3E4141413E7F090903
:107EF80009063E4151215E7F09192946264949490B
:107F08003203017F01033F4040403F1F2040201FB4
:107F18003F4038403F631408146303047804036146
:107F280059494D43007F4141410204081020004156
:107F380041417F04020102044040404040000307E1
:107F4800080020545478407F284444383844444436
:107F580028384444287F385454541800087E0902AD
:107F680018A4A49C787F0804047800447D4000206D
:107F780040403D007F1028440000417F40007C04C1
:107F88007804787C080404783844444438FC18247D
:107F9800241818242418FC7C080404084854545451
:107FA8002404043F44243C4040207C1C2040201CE6
:107FB8003C4030403C44281028444C9090907C44ED
:107FC80064544C440008364100000077000000412A
:107FD800360800020102040200400100012C2D00B5
:107FE8005080A066756E537461636B4C6162730058
:077FF80049443A2564000032
:020000040020DA
:08000000FFFFFFFFFFFFFFFF00
:020000040030CA
:0E000000FF081F1EFF0B81FF0FC00FE00F4017
:00000001FF
