:0400000056EF00F0C7
:100008005E82FACF9CF0FBCF9DF0E9CF9EF0EACF5D
:100018009FF0E1CFA0F0E2CFA1F0D9CFA2F0DACFE4
:10002800A3F0F3CFA4F0F4CFA5F0F6CFA6F0F7CF66
:10003800A7F0F8CFA8F0F5CFA9F0F2AC26EF00F0C2
:1000480028EF00F038EF00F09DA02DEF00F02FEF23
:1000580000F038EF00F09EA034EF00F036EF00F02B
:1000680038EF00F047EC21F0A9C0F5FFA8C0F8FF71
:10007800A7C0F7FFA6C0F6FFA5C0F4FFA4C0F3FF12
:10008800A3C0DAFFA2C0D9FFA1C0E2FFA0C0E1FF70
:100098009FC0EAFF9EC0E9FF9DC0FBFF9CC0FAFF1E
:1000A8005E921100CFEF20F001012A51800B336FCF
:1000B8002A512A25356F29AF64EF00F066EF00F06A
:1000C80067EF00F035813551D8B46DEF00F06FEF70
:1000D80000F084EF00F03529D8A475EF00F077EF31
:1000E80000F07FEF00F0000E276F000E286F000E63
:1000F800296F000E2A6F298F000E2A6F8CEF00F0EF
:10010800000E276F000E286F000E296F000E2A6F51
:100118002E51800B346F33513419D8B496EF00F058
:1001280098EF00F099EF00F0338D2E512E25346FA3
:100138002DAFA1EF00F0A3EF00F0A4EF00F03481A1
:100148003451D8B4AAEF00F0ACEF00F0C1EF00F0E2
:100158003429D8A4B2EF00F0B4EF00F0BCEF00F0FF
:10016800000E2B6F000E2C6F000E2D6F000E2E6FE1
:100178002D8F000E2E6FC9EF00F0000E2B6F000EB2
:100188002C6F000E2D6F000E2E6F3551345DD8B0D8
:10019800D0EF00F0D2EF00F0F9EF00F033ADD7EF79
:1001A80000F0D9EF00F0DBEF00F0800E331B35C113
:1001B80036F134C135F136C134F127C136F12BC1DE
:1001C80027F136C12BF128C136F12CC128F136C1EF
:1001D8002CF129C136F12DC129F136C12DF12AC1E1
:1001E80036F12EC12AF136C12EF1000E366F355187
:1001F80034C12FF1306B2F5F000E305B30BF0EEF34
:1002080001F0305109E11A0E2F5DD8A00EEF01F070
:1002180010EF01F047EF01F02751281129112A1199
:10022800D8A419EF01F01CEF01F0010E1DEF01F049
:10023800000E366F000E276F000E286F000E296F14
:10024800000E2A6F34C135F150EF01F036A12FEFBF
:1002580001F031EF01F037EF01F0D89036310109A4
:10026800366F39EF01F0D890363327A13EEF01F011
:1002780040EF01F041EF01F0368F2A352A33293358
:1002880028332733352B3451355DD8A04EEF01F094
:1002980050EF01F02AEF01F033BD55EF01F057EFB1
:1002A80001F097EF01F03551D8A45DEF01F05FEF51
:1002B80001F069EF01F0000E276F000E286F000EA5
:1002C800296F000E2A6FB8EF02F02B5127272C5107
:1002D80028232D5129232E512A232AA176EF01F014
:1002E80078EF01F024EF02F036A17DEF01F07FEF07
:1002F80001F085EF01F0D89036310109366F87EFAC
:1003080001F0D890363327A18CEF01F08EEF01F081
:100318008FEF01F0368F2A352A33293328332733D4
:10032800352B24EF02F02B51275D2C5128592D51E4
:1003380029592A51800A2F6F2E51800A2F59D8B077
:10034800A8EF01F0AAEF01F0D5EF01F027512B5DDE
:100358002F6F28512C59306F29512D59316F2A513F
:100368002E59326FFF0E2F25276FFF0E3021286F71
:10037800FF0E3121296FFF0E32212A6F800E331BA9
:10038800366D3651D8A4CBEF01F0CDEF01F0DDEF9B
:1003980001F0010E2727000E282329232A23DDEF49
:1003A80001F02B51275F2C51285B2D51295B2E51D1
:1003B8002A5B2751281129112A11D8A4E6EF01F048
:1003C800E8EF01F01DEF02F03651D8A4EEEF01F08E
:1003D800F0EF01F01DEF02F0000E276F000E286FFE
:1003E800000E296F000E2A6FB8EF02F0D890273759
:1003F800283729372A3736AF04EF02F006EF02F024
:1004080007EF02F0278136A10CEF02F00EEF02F0A1
:1004180012EF02F0D880363714EF02F0D890363752
:100428003551D8B41AEF02F01CEF02F01DEF02F0BC
:10043800350729AF22EF02F024EF02F0FAEF01F0BE
:10044800000E346F36AF2BEF02F02DEF02F045EFC0
:1004580002F036C12FF17F0E2F17D8B436EF02F015
:1004680038EF02F03CEF02F0010E346F45EF02F076
:1004780027A141EF02F043EF02F045EF02F038EF19
:1004880002F03451D8B44BEF02F04DEF02F078EFA0
:1004980002F0010E2727000E282329232A232AA148
:1004A80058EF02F05AEF02F078EF02F027C12FF16F
:1004B80028C130F129C131F12AC132F13235323344
:1004C800313330332F332FC127F130C128F131C1F7
:1004D80029F132C12AF13529D8B475EF02F077EF46
:1004E80002F078EF02F0352B3529D8B47EEF02F010
:1004F80080EF02F088EF02F03551D8A486EF02F0C1
:1005080088EF02F09AEF02F0000E276F000E286FB6
:10051800000E296F000E2A6F3551D8A496EF02F00D
:1005280098EF02F09AEF02F0000E336F35A19FEFBB
:1005380002F0A1EF02F0A4EF02F0298FA5EF02F07C
:10054800299FD89035312A6F33AFADEF02F0AFEF66
:1005580002F0B0EF02F02A8F27C127F128C128F155
:1005680029C129F12AC12AF112002B50800B346EBF
:100578002B502B24366E2AAEC4EF02F0C6EF02F0E1
:10058800C7EF02F036803650D8B4CDEF02F0CFEF87
:1005980002F0E4EF02F03628D8A4D5EF02F0D7EF46
:1005A80002F0DFEF02F0000E286E000E296E000E3A
:1005B8002A6E000E2B6E2A8E000E2B6EECEF02F0C8
:1005C800000E286E000E296E000E2A6E000E2B6E8D
:1005D8002F50800B356E34503518D8B4F6EF02F032
:1005E800F8EF02F0F9EF02F0348C2F502F24356E1B
:1005F8002EAE01EF03F003EF03F004EF03F03580B4
:100608003550D8B40AEF03F00CEF03F021EF03F0F4
:100618003528D8A412EF03F014EF03F01CEF03F011
:10062800000E2C6E000E2D6E000E2E6E000E2F6E1C
:100638002E8E000E2F6E29EF03F0000E2C6E000E8A
:100648002D6E000E2E6E000E2F6E3650355CD8B013
:1006580030EF03F032EF03F059EF03F034AC37EF2B
:1006680003F039EF03F03BEF03F0800E341A36C085
:1006780037F035C036F037C035F028C037F02CC019
:1006880028F037C02CF029C037F02DC029F037C02A
:100698002DF02AC037F02EC02AF037C02EF02BC01C
:1006A80037F02FC02BF037C02FF0000E376E3650C2
:1006B80035C030F0316A305E000E315A31BE6EEF0F
:1006C80003F0315009E11A0E305CD8A06EEF03F048
:1006D80070EF03F0A7EF03F0285029102A102B1011
:1006E800D8A479EF03F07CEF03F0010E7DEF03F05F
:1006F800000E376E000E286E000E296E000E2A6E50
:10070800000E2B6E35C036F0B0EF03F037A08FEF38
:1007180003F091EF03F097EF03F0D8903730010919
:10072800376E99EF03F0D890373228A09EEF03F088
:10073800A0EF03F0A1EF03F0378E2B342B322A32CF
:1007480029322832362A3550365CD8A0AEEF03F06D
:10075800B0EF03F08AEF03F034BCB5EF03F0B7EF66
:1007680003F0F7EF03F03650D8A4BDEF03F0BFEF66
:1007780003F0C9EF03F0000E286E000E296E000E7C
:100788002A6E000E2B6E18EF05F02C5028262D50DF
:1007980029222E502A222F502B222BA0D6EF03F0ED
:1007A800D8EF03F084EF04F037A0DDEF03F0DFEFBC
:1007B80003F0E5EF03F0D89037300109376EE7EF23
:1007C80003F0D890373228A0ECEF03F0EEEF03F0F7
:1007D800EFEF03F0378E2B342B322A3229322832AE
:1007E800362A84EF04F02C50285C2D5029582E50BE
:1007F8002A582B50800A306E2F50800A3058D8B0B3
:1008080008EF04F00AEF04F035EF04F028502C5CF0
:10081800306E29502D58316E2A502E58326E2B507A
:100828002F58336EFF0E3024286EFF0E3120296EAC
:10083800FF0E32202A6EFF0E33202B6E800E341AE4
:10084800376C3750D8A42BEF04F02DEF04F03DEFB0
:1008580004F0010E2826000E29222A222B223DEF21
:1008680004F02C50285E2D50295A2E502A5A2F5009
:100878002B5A285029102A102B10D8A446EF04F020
:1008880048EF04F07DEF04F03750D8A44EEF04F0A1
:1008980050EF04F07DEF04F0000E286E000E296E74
:1008A800000E2A6E000E2B6E18EF05F0D890283631
:1008B80029362A362B3637AE64EF04F066EF04F09B
:1008C80067EF04F0288037A06CEF04F06EEF04F0B7
:1008D80072EF04F0D880373674EF04F0D8903736CA
:1008E8003650D8B47AEF04F07CEF04F07DEF04F0D2
:1008F80036062AAE82EF04F084EF04F05AEF04F0D3
:10090800000E356E37AE8BEF04F08DEF04F0A5EFD7
:1009180004F037C030F07F0E3016D8B496EF04F0EC
:1009280098EF04F09CEF04F0010E356EA5EF04F08B
:1009380028A0A1EF04F0A3EF04F0A5EF04F098EFCE
:1009480004F03550D8B4ABEF04F0ADEF04F0D8EFB5
:1009580004F0010E2826000E29222A222B222BA081
:10096800B8EF04F0BAEF04F0D8EF04F028C030F084
:1009780029C031F02AC032F02BC033F0333433327F
:1009880032323132303230C028F031C029F032C032
:100998002AF033C02BF03628D8B4D5EF04F0D7EFBF
:1009A80004F0D8EF04F0362A3628D8B4DEEF04F085
:1009B800E0EF04F0E8EF04F03650D8A4E6EF04F0D6
:1009C800E8EF04F0FAEF04F0000E286E000E296E2E
:1009D800000E2A6E000E2B6E3650D8A4F6EF04F0E7
:1009E800F8EF04F0FAEF04F0000E346E36A0FFEFD3
:1009F80004F001EF05F004EF05F02A8E05EF05F08D
:100A08002A9ED89036302B6E34AE0DEF05F00FEFDE
:100A180005F010EF05F02B8E28C028F029C029F02A
:100A28002AC02AF02BC02BF0120001011151800BB3
:100A38001A6F11511125206F10AF25EF05F027EF20
:100A480005F028EF05F020812051D8B42EEF05F0ED
:100A580030EF05F043EF05F02029D8A436EF05F074
:100A680038EF05F040EF05F0000E0E6F000E0F6F27
:100A7800000E106F000E116F108F4BEF05F0000E77
:100A88000E6F000E0F6F000E106F000E116F1551D4
:100A9800800B1A1B155115251F6F14AF56EF05F063
:100AA80058EF05F059EF05F01F811F51D8B45FEFDB
:100AB80005F061EF05F074EF05F01F29D8A467EF82
:100AC80005F069EF05F071EF05F0000E126F000EEA
:100AD800136F000E146F000E156F148F7CEF05F066
:100AE800000E126F000E136F000E146F000E156FBC
:100AF8001F51D8B482EF05F084EF05F08CEF05F0B4
:100B08002051D8A48AEF05F08CEF05F096EF05F098
:100B1800000E0E6F000E0F6F000E106F000E116F9B
:100B28002EEF07F014510E03F3CF25F1F4CF26F181
:100B380025511B6F1C6B1D6B1E6B2651216F226B81
:100B4800236B246B13510F03F3CF25F1F4CF26F158
:100B580025511B27000E1C231D231E232651212748
:100B6800000E22232323242312511003F3CF25F14F
:100B7800F4CF26F125511B27000E1C231D231E230D
:100B880026512127000E2223232324231DC11EF1D1
:100B98001CC11DF11BC11CF11B6B12510F03F3CFBC
:100BA80025F1F4CF26F125511B2726511C23000ED1
:100BB8001D23000E1E2313510E03F3CF25F1F4CF8E
:100BC80026F125511B2726511C23000E1D23000E3C
:100BD8001E231DC11EF11CC11DF11BC11CF11B6B85
:100BE80012510E03F3CF25F1F4CF26F125511B271F
:100BF80026511C23000E1D23000E1E2314510F0323
:100C0800F3CF25F1F4CF26F12551212726512223B0
:100C1800000E2323000E242313511003F3CF25F1D4
:100C2800F4CF26F12551212726512223000E232314
:100C3800000E242314511003F3CF25F1F4CF26F12D
:100C48002551166F2651176F186B196B18C119F1BA
:100C580017C118F116C117F1166B16512127175134
:100C6800222318512323195124231BC116F11CC117
:100C780017F11DC118F11EC119F1190E49EF06F03F
:100C8800D8901933183317331633E82E44EF06F08B
:100C98001651212717512223185123231951242390
:100CA8001DC11EF11CC11DF11BC11CF11B6B1F5185
:100CB80020C116F1176B1627000E1723820E162572
:100CC800256FFF0E1721266F7FEF06F0D89021378A
:100CD8002237233724371EAF74EF06F076EF06F07D
:100CE80077EF06F02181D8901B371C371D371E3748
:100CF8002507D8A0260723AF84EF06F086EF06F075
:100D08006AEF06F0000E1F6F1EAF8DEF06F08FEF33
:100D180006F0B3EF06F0FF0E1B15166FFF0E1C153D
:100D2800176FFF0E1D15186F7F0E1E15196F1651C0
:100D3800171118111911D8B4A4EF06F0A6EF06F090
:100D4800AAEF06F0010E1F6FB3EF06F021A1AFEF77
:100D580006F0B1EF06F0B3EF06F0A6EF06F01F516C
:100D6800D8B4B9EF06F0BBEF06F0DFEF06F0010EDE
:100D78002127000E22232323242324A1C6EF06F0D3
:100D8800C8EF06F0DFEF06F021C116F122C117F116
:100D980023C118F124C119F1193519331833173340
:100DA800163316C121F117C122F118C123F119C157
:100DB80024F1254B262B26BFEAEF06F0265108E141
:100DC8002529D8A0EAEF06F0ECEF06F0F6EF06F0DA
:100DD800000E216F000E226F800E236F7F0E246F8E
:100DE80024EF07F026BF03EF07F0265106E125059B
:100DF800D8B001EF07F003EF07F00FEF07F0000E90
:100E0800216F000E226F000E236F000E246F000E5C
:100E18001A6F24EF07F025C120F1FF0E2117FF0EEE
:100E280022177F0E2317000E241720A11EEF07F0AC
:100E380020EF07F021EF07F0238FD8902031246F9F
:100E48001A51241321C10EF122C10FF123C110F14F
:100E580024C111F112001250800B1B6E1250122483
:100E6800216E11AE3AEF07F03CEF07F03DEF07F0C7
:100E780021802150D8B443EF07F045EF07F058EF31
:100E880007F02128D8A44BEF07F04DEF07F055EFF6
:100E980007F0000E0F6E000E106E000E116E000EA1
:100EA800126E118E60EF07F0000E0F6E000E106EBE
:100EB800000E116E000E126E1650800B1B1A165083
:100EC8001624206E15AE6BEF07F06DEF07F06EEF8E
:100ED80007F020802050D8B474EF07F076EF07F0C1
:100EE80089EF07F02028D8A47CEF07F07EEF07F001
:100EF80086EF07F0000E136E000E146E000E156ECE
:100F0800000E166E158E91EF07F0000E136E000E90
:100F1800146E000E156E000E166E2050D8B497EFA2
:100F280007F099EF07F0A1EF07F02150D8A49FEF41
:100F380007F0A1EF07F0ABEF07F0000E0F6E000E01
:100F4800106E000E116E000E126E43EF09F0155070
:100F58000F02F3CF26F0F4CF27F026501C6E1D6A3F
:100F68001E6A1F6A2750226E236A246A256A145053
:100F78001002F3CF26F0F4CF27F026501C26000EDF
:100F88001D221E221F2227502226000E2322242241
:100F9800252213501102F3CF26F0F4CF27F0265064
:100FA8001C26000E1D221E221F2227502226000E5C
:100FB8002322242225221EC01FF01DC01EF01CC0A3
:100FC8001DF01C6A13501002F3CF26F0F4CF27F05F
:100FD80026501C2627501D22000E1E22000E1F22FE
:100FE80014500F02F3CF26F0F4CF27F026501C261A
:100FF80027501D22000E1E22000E1F221EC01FF0A9
:101008001DC01EF01CC01DF01C6A13500F02F3CF48
:1010180026F0F4CF27F026501C2627501D22000E5C
:101028001E22000E1F2215501002F3CF26F0F4CF17
:1010380027F02650222627502322000E2422000EB5
:10104800252214501102F3CF26F0F4CF27F02650B2
:10105800222627502322000E2422000E2522155076
:101068001102F3CF26F0F4CF27F02650176E275041
:10107800186E196A1A6A19C01AF018C019F017C040
:1010880018F0176A175022261850232219502422C4
:101098001A5025221CC017F01DC018F01EC019F0E8
:1010A8001FC01AF0190E5EEF08F0D8901A321932E4
:1010B80018321732E82E59EF08F017502226185028
:1010C8002322195024221A5025221EC01FF01DC0A9
:1010D8001EF01CC01DF01C6A205021C017F0186AB1
:1010E8001726000E1822820E1724266EFF0E1820CF
:1010F800276E94EF08F0D89022362336243625360A
:101108001FAE89EF08F08BEF08F08CEF08F0228013
:10111800D8901C361D361E361F362606D8A0270640
:1011280024AE99EF08F09BEF08F07FEF08F0000E6F
:10113800206E1FAEA2EF08F0A4EF08F0C8EF08F089
:10114800FF0E1C14176EFF0E1D14186EFF0E1E14D2
:10115800196E7F0E1F141A6E1750181019101A10D6
:10116800D8B4B9EF08F0BBEF08F0BFEF08F0010EF4
:10117800206EC8EF08F022A0C4EF08F0C6EF08F010
:10118800C8EF08F0BBEF08F02050D8B4CEEF08F055
:10119800D0EF08F0F4EF08F0010E2226000E23220B
:1011A8002422252225A0DBEF08F0DDEF08F0F4EF7C
:1011B80008F022C017F023C018F024C019F025C089
:1011C8001AF01A341A3219321832173217C022F0AC
:1011D80018C023F019C024F01AC025F0264A272A7F
:1011E80027BEFFEF08F0275008E12628D8A0FFEF18
:1011F80008F001EF09F00BEF09F0000E226E000E67
:10120800236E800E246E7F0E256E39EF09F027BEFF
:1012180018EF09F0275006E12604D8B016EF09F0B8
:1012280018EF09F024EF09F0000E226E000E236E6D
:10123800000E246E000E256E000E1B6E39EF09F0AD
:1012480026C021F0FF0E2216FF0E23167F0E24164D
:10125800000E251621A033EF09F035EF09F036EF1F
:1012680009F0248ED8902130256E1B50251222C0FB
:101278000FF023C010F024C011F025C012F01200A6
:1012880001014151B91907E14251BA19D8A44FEFE8
:1012980009F051EF09F05FEF09F04351B71907E181
:1012A8004451B819D8A45BEF09F05DEF09F05FEF7E
:1012B80009F015EF0BF041C145F142C146F10B0EA3
:1012C800476FD89046334533472F65EF09F04551AE
:1012D800496F41C145F142C146F1050E476FD890AB
:1012E80046334533472F73EF09F045513F0B4A6F9B
:1012F80041511F0B4B6F43C145F144C146F10B0EE1
:10130800476FD89046334533472F85EF09F045514D
:101318004C6F43C145F144C146F1050E476FD89063
:1013280046334533472F93EF09F045513F0B4D6F37
:1013380043511F0B4E6F000E5A6F5A51006F016BCD
:10134800026B036B010EDAEC16F000C10EF101C15D
:101358000FF102C110F103C111F1000E0101126F6A
:10136800000E136F700E146F410E156F16EC0BF014
:101378000EC156F10FC157F110C158F111C159F101
:10138800000E0101376F000E386F800E396F3F0E67
:101398003A6F56C13BF157C13CF158C13DF159C1B3
:1013A8003EF1D6EC1FF037C152F138C153F139C1C3
:1013B80054F13AC155F152C112F153C113F154C15C
:1013C80014F155C115F101014C51006F016B026B0D
:1013D800036B010EDAEC16F000C10EF101C10FF13A
:1013E80002C110F103C111F119EC05F00EC12BF186
:1013F8000FC12CF110C12DF111C12EF156C112F1FE
:1014080057C113F158C114F159C115F101014951DE
:10141800006F016B026B036B010EDAEC16F000C172
:101428000EF101C10FF102C110F103C111F119EC64
:1014380005F00EC127F10FC128F110C129F111C122
:101448002AF158EC00F027C137F128C138F129C139
:1014580039F12AC13AF10DEC1CF0010137514F6FF7
:1014680052C112F153C113F154C114F155C115F110
:101478004D51006F016B026B036B010EDAEC16F035
:1014880000C10EF101C10FF102C110F103C111F148
:1014980019EC05F00EC12BF10FC12CF110C12DF183
:1014A80011C12EF156C112F157C113F158C114F1EF
:1014B80059C115F101014A51006F016B026B036BB1
:1014C800010EDAEC16F000C10EF101C10FF102C1F4
:1014D80010F103C111F119EC05F00EC127F10FC18C
:1014E80028F110C129F111C12AF158EC00F027C1E7
:1014F80037F128C138F129C139F12AC13AF10DEC87
:101508001CF001013751506F52C112F153C113F150
:1015180054C114F155C115F14E51006F016B026BA6
:10152800036B010EDAEC16F000C10EF101C10FF1E8
:1015380002C110F103C111F119EC05F00EC12BF134
:101548000FC12CF110C12DF111C12EF156C112F1AC
:1015580057C113F158C114F159C115F101014B518B
:10156800006F016B026B036B010EDAEC16F000C121
:101578000EF101C10FF102C110F103C111F119EC13
:1015880005F00EC127F10FC128F110C129F111C1D1
:101598002AF158EC00F027C137F128C138F129C1E8
:1015A80039F12AC13AF10DEC1CF001013751516FA4
:1015B8005051456F466B050ED89045374637E82E93
:1015C800E0EF0AF04F51476F486B0B0ED890473742
:1015D8004837E82EEAEF0AF0455147274651482395
:1015E80051514727000E48235A51020D970EF324F4
:1015F800D96E010EF420DA6E47C1DEFF48C1DDFF67
:101608005A2B0F0E5A650BEF0BF00DEF0BF0A1EFF5
:1016180009F041C1B9F142C1BAF143C1B7F144C1BE
:10162800B8F1120001011151800B1E6F11511125E3
:10163800256F10AF22EF0BF024EF0BF025EF0BF026
:1016480025812551D8B42BEF0BF02DEF0BF042EF8D
:101658000BF02529D8A433EF0BF035EF0BF03DEF55
:101668000BF0000E0E6F000E0F6F000E106F000EC5
:10167800116F108F000E116F4AEF0BF0000E0E6FF6
:10168800000E0F6F000E106F000E116F1551800BBA
:101698001E1B15511525266F14AF55EF0BF057EF8C
:1016A8000BF058EF0BF026812651D8B45EEF0BF003
:1016B80060EF0BF075EF0BF02629D8A466EF0BF05E
:1016C80068EF0BF070EF0BF0000E126F000E136F47
:1016D800000E146F000E156F148F000E156F7DEF3E
:1016E8000BF0000E126F000E136F000E146F000E39
:1016F800156F1251131114111511D8A486EF0BF0A0
:1017080088EF0BF0A0EF0BF0000E0E6F000E0F6FBE
:10171800000E106F000E116F800E10137F0E111344
:101728001E5111130EC10EF10FC10FF110C110F1AE
:1017380011C111F1E3EF0CF02551D8A4A6EF0BF07D
:10174800A8EF0BF0B2EF0BF0000E0E6F000E0F6F4C
:10175800000E106F000E116FE3EF0CF0265125C13B
:1017680016F1176B165F000E175B7F0E16251F6F9D
:10177800000E1721206F0EC11AF10FC11BF110C105
:101788001CF111C11DF1000E0E6F000E0F6F000E3F
:10179800106F000E116F000E216F000E226F000EE9
:1017A800236F000E246F000E266F13EF0CF02651E6
:1017B800D8B4E1EF0BF0E3EF0BF0FAEF0BF0D890B1
:1017C8001A371B371C371D37D8900E370F3710378D
:1017D800113724AFF2EF0BF0F4EF0BF0F5EF0BF04D
:1017E8000E81D890213722372337243712511A5DBA
:1017F80013511B5914511C5915511D59D8A007EFE5
:101808000CF009EF0CF012EF0CF0248D12511A5F56
:1018180013511B5B14511C5B15511D5B262B190EB4
:10182800266519EF0CF01BEF0CF0DBEF0BF01A51EB
:101838001B111C111D11D8B424EF0CF026EF0CF06D
:101848003EEF0CF021813EEF0CF0D8900E370F37A9
:101858001037113724AF33EF0CF035EF0CF036EFBB
:101868000CF00E81D89021372237233724371F07F1
:10187800D8A0200710AF43EF0CF045EF0CF029EF8C
:101888000CF0000E266F24AF4CEF0CF04EEF0CF06E
:1018980072EF0CF0FF0E2115166FFF0E2215176F51
:1018A800FF0E2315186F7F0E2415196F1651171187
:1018B80018111911D8B463EF0CF065EF0CF069EF4B
:1018C8000CF0010E266F72EF0CF00EA16EEF0CF00B
:1018D80070EF0CF072EF0CF065EF0CF02651D8B4F5
:1018E80078EF0CF07AEF0CF09EEF0CF0010E0E275B
:1018F800000E0F231023112311A185EF0CF087EFA1
:101908000CF09EEF0CF00EC116F10FC117F110C1CB
:1019180018F111C119F11935193318331733163362
:1019280016C10EF117C10FF118C110F119C111F14B
:101938001F4B202B20BFA9EF0CF0205108E11F29D5
:10194800D8A0A9EF0CF0ABEF0CF0B6EF0CF0000E3E
:10195800206F1F69000E0E6F000E0F6F000E106FC4
:10196800000E116F20BFC3EF0CF0205106E11F05D8
:10197800D8B0C1EF0CF0C3EF0CF0D1EF0CF0000EB3
:10198800206F000E1F6F000E0E6F000E0F6F000EFF
:10199800106F000E116F000E1E6F1FC125F125A1DB
:1019A800D8EF0CF0DAEF0CF0DDEF0CF0108FDEEF73
:1019B8000CF0109FD8902531116F94EF0BF01200A6
:1019C8001250800B1F6E12501224266E11AEEFEFCC
:1019D8000CF0F1EF0CF0F2EF0CF026802650D8B4A2
:1019E800F8EF0CF0FAEF0CF00FEF0DF02628D8A462
:1019F80000EF0DF002EF0DF00AEF0DF0000E0F6E84
:101A0800000E106E000E116E000E126E118E000E7A
:101A1800126E17EF0DF0000E0F6E000E106E000E16
:101A2800116E000E126E1650800B1F1A16501624D7
:101A3800276E15AE22EF0DF024EF0DF025EF0DF017
:101A480027802750D8B42BEF0DF02DEF0DF042EF83
:101A58000DF02728D8A433EF0DF035EF0DF03DEF4A
:101A68000DF0000E136E000E146E000E156E000EB3
:101A7800166E158E000E166E4AEF0DF0000E136EE0
:101A8800000E146E000E156E000E166E1350141014
:101A980015101610D8A453EF0DF055EF0DF06DEF9B
:101AA8000DF0000E0F6E000E106E000E116E000E7F
:101AB800126E800E11127F0E12121F5012120FC0DA
:101AC8000FF010C010F011C011F012C012F0B0EFFA
:101AD8000EF02650D8A473EF0DF075EF0DF07FEFE0
:101AE8000DF0000E0F6E000E106E000E116E000E3F
:101AF800126EB0EF0EF0275026C017F0186A175E66
:101B0800000E185A7F0E1724206E000E1820216E22
:101B18000FC01BF010C01CF011C01DF012C01EF049
:101B2800000E0F6E000E106E000E116E000E126E7B
:101B3800000E226E000E236E000E246E000E256E1F
:101B4800000E276EE0EF0DF02750D8B4AEEF0DF081
:101B5800B0EF0DF0C7EF0DF0D8901B361C361D36D0
:101B68001E36D8900F3610361136123625AEBFEF16
:101B78000DF0C1EF0DF0C2EF0DF00F80D8902236B6
:101B880023362436253613501B5C14501C58155028
:101B98001D5816501E58D8A0D4EF0DF0D6EF0DF0F2
:101BA800DFEF0DF0258C13501B5E14501C5A155096
:101BB8001D5A16501E5A272A190E2764E6EF0DF0F3
:101BC800E8EF0DF0A8EF0DF01B501C101D101E10B3
:101BD800D8B4F1EF0DF0F3EF0DF00BEF0EF022801B
:101BE8000BEF0EF0D8900F3610361136123625AEA0
:101BF80000EF0EF002EF0EF003EF0EF00F80D8901A
:101C080022362336243625362006D8A0210611AEE2
:101C180010EF0EF012EF0EF0F6EF0DF0000E276E3B
:101C280025AE19EF0EF01BEF0EF03FEF0EF0FF0E92
:101C38002214176EFF0E2314186EFF0E2414196E4B
:101C48007F0E25141A6E1750181019101A10D8B4D0
:101C580030EF0EF032EF0EF036EF0EF0010E276E79
:101C68003FEF0EF00FA03BEF0EF03DEF0EF03FEF11
:101C78000EF032EF0EF02750D8B445EF0EF047EFD4
:101C88000EF06BEF0EF0010E0F26000E102211223F
:101C9800122212A052EF0EF054EF0EF06BEF0EF07E
:101CA8000FC017F010C018F011C019F012C01AF0C8
:101CB8001A341A3219321832173217C00FF018C0F6
:101CC80010F019C011F01AC012F0204A212A21BEC2
:101CD80076EF0EF0215008E12028D8A076EF0EF01C
:101CE80078EF0EF083EF0EF0000E216E2068000EE4
:101CF8000F6E000E106E000E116E000E126E21BED9
:101D080090EF0EF0215006E12004D8B08EEF0EF0CF
:101D180090EF0EF09EEF0EF0000E216E000E206E7A
:101D2800000E0F6E000E106E000E116E000E126E79
:101D3800000E1F6E20C026F026A0A5EF0EF0A7EF1C
:101D48000EF0AAEF0EF0118EABEF0EF0119ED890A8
:101D58002630126E61EF0DF0120042500101B919E0
:101D680007E14350BA19D8A4BCEF0EF0BEEF0EF04D
:101D7800CCEF0EF04450B71907E14550B819D8A474
:101D8800C8EF0EF0CAEF0EF0CCEF0EF079EF10F0BE
:101D980042C046F043C047F00B0E486ED890473219
:101DA8004632482ED2EF0EF046504A6E42C046F0F8
:101DB80043C047F0050E486ED89047324632482E49
:101DC800E0EF0EF046503F0B4B6E42501F0B4C6E2F
:101DD80044C046F045C047F00B0E486ED8904732D5
:101DE8004632482EF2EF0EF046504D6E44C046F093
:101DF80045C047F0050E486ED89047324632482E07
:101E080000EF0FF046503F0B4E6E44501F0B4F6EC5
:101E1800000E5B6E5B50016E026A036A046A010E73
:101E2800B6EC17F001C00FF002C010F003C011F0BB
:101E380004C012F0000E136E000E146E700E156EB4
:101E4800410E166EE4EC0CF00FC057F010C058F0BD
:101E580011C059F012C05AF0000E386E000E396EDB
:101E6800800E3A6E3F0E3B6E57C03CF058C03DF0B6
:101E780059C03EF05AC03FF01DEC20F038C053F076
:101E880039C054F03AC055F03BC056F053C013F077
:101E980054C014F055C015F056C016F04D50016EE0
:101EA800026A036A046A010EB6EC17F001C00FF06B
:101EB80002C010F003C011F004C012F02FEC07F0BC
:101EC8000FC02CF010C02DF011C02EF012C02FF052
:101ED80057C013F058C014F059C015F05AC016F086
:101EE8004A50016E026A036A046A010EB6EC17F0E2
:101EF80001C00FF002C010F003C011F004C012F0CE
:101F08002FEC07F00FC028F010C029F011C02AF0FC
:101F180012C02BF0B9EC02F028C038F029C039F013
:101F28002AC03AF02BC03BF091EC1CF03850506EB0
:101F380053C013F054C014F055C015F056C016F035
:101F48004E50016E026A036A046A010EB6EC17F07D
:101F580001C00FF002C010F003C011F004C012F06D
:101F68002FEC07F00FC02CF010C02DF011C02EF090
:101F780012C02FF057C013F058C014F059C015F014
:101F88005AC016F04B50016E026A036A046A010EC9
:101F9800B6EC17F001C00FF002C010F003C011F04A
:101FA80004C012F02FEC07F00FC028F010C029F081
:101FB80011C02AF012C02BF0B9EC02F028C038F09A
:101FC80029C039F02AC03AF02BC03BF091EC1CF044
:101FD8003850516E53C013F054C014F055C015F06A
:101FE80056C016F04F50016E026A036A046A010E69
:101FF800B6EC17F001C00FF002C010F003C011F0EA
:1020080004C012F02FEC07F00FC02CF010C02DF018
:1020180011C02EF012C02FF057C013F058C014F0A2
:1020280059C015F05AC016F04C50016E026A036A86
:10203800046A010EB6EC17F001C00FF002C010F0F0
:1020480003C011F004C012F02FEC07F00FC028F005
:1020580010C029F011C02AF012C02BF0B9EC02F020
:1020680028C038F029C039F02AC03AF02BC03BF01C
:1020780091EC1CF03850526E5150466E476A050E6E
:10208800D89046364736E82E44EF10F05050486E48
:10209800496A0B0ED89048364936E82E4EEF10F0B4
:1020A800465048264750492252504826000E492299
:1020B8005B50020D970EF324D96E010EF420DA6EF0
:1020C80048C0DEFF49C0DDFF5B2A0F0E5B646FEF7F
:1020D80010F071EF10F00EEF0FF042C0B9F143C0ED
:1020E800BAF144C0B7F145C0B8F1120042C0D9FFF7
:1020F80043C0DAFFDECFF6FFDDCFF7FF0800F5506B
:10210800250AD8A48AEF10F08CEF10F007EF12F030
:1021180042C0D9FF43C0DAFFDE2A000EDD22000EDE
:102128000001AD6F000EAC6FACC05CF0ADC05DF0EF
:10213800AE69AF69000E536E000E526EEAEF10F0F2
:102148005C8042C0D9FF43C0DAFFDE2A000EDD22E0
:10215800EAEF10F05C82A5EF10F05C84A5EF10F0B8
:102168005C86A5EF10F05C88A5EF10F0000E536EAA
:10217800010E526EEAEF10F042C0D9FF43C0DAFFF9
:10218800DECFF6FFDDCFF7FF0800F550466E476A51
:102198004750000AD8B4D3EF10F0BAEF10F0465009
:1021A800200AD8B4B4EF10F0030AD8B4B7EF10F08F
:1021B800080AD8B4B1EF10F0060AD8B4A4EF10F0AA
:1021C8001D0AD8B4AEEF10F0BAEF10F05250531009
:1021D800D8B4F1EF10F0F3EF10F0C0EF10F05CA0FE
:1021E800F8EF10F0FAEF10F0FBEF10F05C9242C03D
:1021F800D9FF43C0DAFFDECFF6FFDDCFF7FF0800D7
:10220800F5502A0AD8A40BEF11F00DEF11F037EFB3
:1022180011F042C0D9FF43C0DAFFDE2A000EDD22EA
:1022280044C0D9FF45C0DAFFDFCF46F0020EDE26F4
:10223800DFCF47F0000EDD2246C0D9FF47C0DAFFE6
:10224800DECFACF0DDCFADF00001ADBF30EF11F067
:102258002EEF11F06DEF11F05C80AC6DAD1FD8B0B2
:10226800AD2B6DEF11F042C0D9FF43C0DAFFDECFCE
:1022780008F0DDCF09F062EC1BF008C0ACF009C033
:10228800ADF04EEF11F042C0D9FF43C0DAFFDE2AAD
:10229800000EDD22D00E466EFF0E476E42C0D9FFFB
:1022A80043C0DAFFDECFF6FFDDCFF7FF0800F550B9
:1022B800486E496A4650482647504922495009E124
:1022C8000A0E485CD8A06BEF11F06DEF11F047EFE4
:1022D80011F042C0D9FF43C0DAFFDECFF6FFDDCFF1
:1022E800F7FF0800F550640AD8B47DEF11F07FEFCE
:1022F80011F091EF11F042C0D9FF43C0DAFFDECFF1
:10230800F6FFDDCFF7FF0800F550690AD8A48FEF74
:1023180011F091EF11F0D1EF11F042C0D9FF43C095
:10232800DAFFDE2A000EDD2244C0D9FF45C0DAFFFD
:10233800DFCF46F0020EDE26DFCF47F0000EDD22AB
:1023480046C0D9FF47C0DAFFDECF4AF0DDCF4BF0F9
:10235800000E4BBEFF0E4C6E4D6E4E6E4F6E506EA5
:10236800516E40C01CF041C01DF04AC01EF04BC069
:102378001FF04CC020F04DC021F04EC022F04FC0DD
:1023880023F050C024F051C025F093EC13F01CC08A
:1023980040F01DC041F022EF12F042C0D9FF43C007
:1023A800DAFFDECFF6FFDDCFF7FF0800F550250A8C
:1023B800D8A4E1EF11F0E3EF11F0FAEF11F042C009
:1023C800D9FF43C0DAFFDE2A000EDD22000E026EBE
:1023D800250E016E40C003F041C004F014EC1DF05E
:1023E800000E416E010E406E22EF12F042C0D9FF7E
:1023F80043C0DAFFDE2A000EDD22000E416E000E19
:10240800406E22EF12F042C0D9FF43C0DAFFDECFA0
:10241800F6FFDDCFF7FF0800F550016E026A40C0F5
:1024280003F041C004F014EC1DF042C0D9FF43C0D2
:10243800DAFFDE2A000EDD22F4EF11F012008C9292
:10244800050E0101036F0F0E026FF10EE82EFED785
:10245800022FFCD7032FFAD78C82050E0101036FD8
:102468000F0E026FF10EE82EFED7022FFCD7032FB6
:10247800FAD78C90010E5AEC21F0050E0101036F7A
:102488000F0E026FF10EE82EFED7022FFCD7032F96
:10249800FAD7110E5AEC21F0050E0101036F0F0E49
:1024A800026FF10EE82EFED7022FFCD7032FFAD7C2
:1024B800B10E5AEC21F0500EF66E670EF76E08005A
:1024C800F55074EC21F0510EF66E670EF76E0800A9
:1024D800F55074EC21F0520EF66E670EF76E080098
:1024E800F55074EC21F0B20E5AEC21F0500EF66E55
:1024F800670EF76E0800F55074EC21F0510EF66E79
:10250800670EF76E0800F55074EC21F0520EF66E67
:10251800670EF76E0800F55074EC21F0B30E5AEC14
:1025280021F0500EF66E670EF76E0800F55074EC49
:1025380021F0510EF66E670EF76E0800F55074EC38
:1025480021F0520EF66E670EF76E0800F55074EC27
:1025580021F0B40E5AEC21F0070E74EC21F0C00EF5
:102568005AEC21F0A20E74EC21F0020E74EC21F06A
:10257800840E74EC21F0C10E5AEC21F0C50E74ECF7
:1025880021F0C20E5AEC21F00A0E74EC21F0000E74
:1025980074EC21F0C30E5AEC21F08A0E74EC21F091
:1025A8002A0E74EC21F0C40E5AEC21F08A0E74EC59
:1025B80021F0EE0E74EC21F0C50E5AEC21F00E0E4F
:1025C80074EC21F0200E5AEC21F0360E5AEC21F072
:1025D800600E74EC21F03A0E5AEC21F0050E74EC02
:1025E80021F02A0E5AEC21F0000E74EC21F0000EB6
:1025F80074EC21F0000E74EC21F07F0E74EC21F0E5
:102608002B0E5AEC21F0000E74EC21F0000E74EC45
:1026180021F0000E74EC21F09F0E74EC21F0E00E16
:102628005AEC21F0020E74EC21F01C0E74EC21F02F
:10263800070E74EC21F0120E74EC21F0370E74ECD6
:1026480021F0320E74EC21F0290E74EC21F02D0EDD
:1026580074EC21F0290E74EC21F0250E74EC21F0B5
:102668002B0E74EC21F0390E74EC21F0000E74EC92
:1026780021F0010E74EC21F0030E74EC21F0100E21
:1026880074EC21F0E10E5AEC21F0030E74EC21F009
:102698001D0E74EC21F0070E74EC21F0060E74EC9C
:1026A80021F02E0E74EC21F02C0E74EC21F0290E82
:1026B80074EC21F02D0E74EC21F02E0E74EC21F048
:1026C8002E0E74EC21F0370E74EC21F03F0E74ECF2
:1026D80021F0000E74EC21F0000E74EC21F0020ED3
:1026E80074EC21F0100E74EC21F0130E5AEC21F06A
:1026F800680E0101026FE40EE82EFED7022FFCD708
:1027080000F0290E5AEC21F0680E0101026FE40E68
:10271800E82EFED7022FFCD700F08C8E12001EC0C8
:1027280036F01FC037F020C038F021C039F022C081
:102738003AF023C03BF024C03CF025C03DF03DBE3C
:10274800A8EF13F0ABEF13F0010EACEF13F0000E8F
:10275800346E356A34503510D8B4B5EF13F0B7EF8E
:1027680013F0C7EF13F03D1E3C1E3B1E3A1E391EE8
:10277800381E371E366C000E3722382239223A228C
:102788003B223C223D220001AFBFCDEF13F0CFEF3B
:1027980013F0D0EF13F05C92AFBFDDEF13F0AF5141
:1027A80006E1AE05D8B0DBEF13F0DDEF13F0E3EF91
:1027B80013F0000E316E010E306EE7EF13F0AEC06D
:1027C80030F0AFC031F0ACC032F0ADC033F03450AF
:1027D8003510D8A4F2EF13F0F4EF13F0FBEF13F079
:1027E8005CA4F9EF13F0FBEF13F0FEEF13F03206E1
:1027F800D8A03306000E3F6E1F0E3E6E000ED26F3D
:1028080082EF14F03E06D8A03F06B30E3E24D96EE0
:10281800000E3F20DA6E36C001F037C002F038C033
:1028280003F039C004F03AC005F03BC006F03CC0E4
:1028380007F03DC008F00A0E096E000E0A6E000E81
:102848000B6E000E0C6E000E0D6E000E0E6E000E5E
:102858000F6E000E106E54EC19F001C026F002C085
:1028680027F003C028F004C029F005C02AF006C0EC
:102878002BF007C02CF008C02DF026C013F028C09C
:1028880014F062EC20F01350300FDF6E3006D8A041
:1028980031063206D8A0330636C001F037C002F040
:1028A80038C003F039C004F03AC005F03BC006F068
:1028B8003CC007F03DC008F00A0E096E000E0A6E13
:1028C800000E0B6E000E0C6E000E0D6E000E0E6EDE
:1028D800000E0F6E000E106E90EC18F001C036F06E
:1028E80002C037F003C038F004C039F005C03AF030
:1028F80006C03BF007C03CF008C03DF03FBE8DEF7E
:1029080014F03F5008E13E04D8A08DEF14F08FEF8B
:1029180014F0BFEF14F036503710381039103A1051
:102928003B103C103D10D8A49CEF14F09EEF14F01F
:1029380006EF14F031BEABEF14F0315006E130046D
:10294800D8B0A9EF14F0ABEF14F006EF14F033BED3
:10295800B6EF14F0335008E13204D8A0B6EF14F003
:10296800B8EF14F0BFEF14F05CB2BDEF14F0BFEF96
:1029780014F006EF14F034503510D8A4C6EF14F054
:10298800C8EF14F0CFEF14F05CA4CDEF14F0CFEF44
:1029980014F0EDEF14F03E06D8A03F063450351081
:1029A800D8A4D9EF14F0DBEF14F0E1EF14F0000E27
:1029B8002F6E2B0E2E6EE5EF14F0000E2F6E2D0EDF
:1029C8002E6EB30E3E24D96E000E3F20DA6E2EC056
:1029D800DFFF1CC011F01DC012F0B30E3E24136EB1
:1029E800000E3F20146E32C015F033C016F079EC9B
:1029F8001DF011C01CF012C01DF0120078C196F134
:102A080079C193F17AC100F17BC101F1E7EC1EF0C5
:102A180000C189F101C18AF1000E0101956F000E14
:102A2800946FE2EF15F0200E806FFF0E816F9451C6
:102A38007A25826F95517B21836F82C1F6FF83C10E
:102A4800F7FFF86A050EF76403D00800F55005D0C3
:102A5800F6CFE9FFF7CFEAFFEF500101846F845109
:102A6800070D010E7625856F000E7721866F85C1CB
:102A7800F6FF86C1F7FF0900F5CF87F10900F5CF0A
:102A880088F1F3508727F450882380518727815194
:102A9800882387C1F6FF88C1F7FF21EE8BF0060E69
:102AA8000900F5CFDEFFE806FBE28D518B25926F1A
:102AB800925196C180F1816B8027000E812381BFDE
:102AC8006FEF15F0815109E1A10E805DD8A06FEF7D
:102AD80015F071EF15F0A6EF15F0000E966F76C1A0
:102AE800F6FF77C1F7FF0800F5509325020F936FA3
:102AF800800E936582EF15F084EF15F086EF15F0E0
:102B0800800E936F94517A25806F95517B21816F48
:102B180080C1F6FF81C1F7FFF86A050EF76403D09C
:102B28000800F55005D0F6CFE9FFF7CFEAFFEF50E0
:102B3800200AD8A4A2EF15F0A4EF15F0A6EF15F01F
:102B4800DFEF15F076C15BF177C15CF196C15DF1FD
:102B580093C15EF1010194517A25806F95517B21D3
:102B6800816F80C1F6FF81C1F7FFF86A050EF7642F
:102B780003D00800F55005D0F6CFE9FFF7CFEAFFFC
:102B8800EF5001015F6F7CC160F17DC161F17EC1D1
:102B980062F17FC163F106EC1AF0010196519225AA
:102BA800966FA00E9665DBEF15F0DDEF15F0DFEF01
:102BB80015F0A00E966F0101944B952B8951945DE9
:102BC8008A519559D8A0EBEF15F0EDEF15F017EFF6
:102BD80015F012007DC09BF07EC098F07FC001F018
:102BE80080C002F08AEC1FF001C08EF002C08FF0A6
:102BF800000E00019A6F000E996FCEEF16F0200EAE
:102C0800856FFF0E866F99517F25876F9A518021B6
:102C1800886F87C0F6FF88C0F7FFF86A050EF7646B
:102C280003D00800F55005D0F6CFE9FFF7CFEAFF4B
:102C3800EF500001896F8951070D010E7B258A6FBE
:102C4800000E7C218B6F8AC0F6FF8BC0F7FF09004E
:102C5800F5CF8CF00900F5CF8DF0F3508C27F450A8
:102C68008D2385518C2786518D238CC0F6FF8DC00E
:102C7800F7FF20EE90F0060E0900F5CFDEFFE8061C
:102C8800FBE292519025976F97519BC085F0866B18
:102C98008527000E862386BF5BEF16F0865109E173
:102CA800A10E855DD8A05BEF16F05DEF16F092EFF0
:102CB80016F0000E9B6F7BC0F6FF7CC0F7FF080084
:102CC800F5509825020F986F800E98656EEF16F0F4
:102CD80070EF16F072EF16F0800E986F99517F25FD
:102CE800856F9A518021866F85C0F6FF86C0F7FFF1
:102CF800F86A050EF76403D00800F55005D0F6CF42
:102D0800E9FFF7CFEAFFEF50200AD8A48EEF16F0BC
:102D180090EF16F092EF16F0CBEF16F07BC060F054
:102D28007CC061F09BC062F098C063F000019951CB
:102D38007F25856F9A518021866F85C0F6FF86C0F2
:102D4800F7FFF86A050EF76403D00800F55005D0C0
:102D5800F6CFE9FFF7CFEAFFEF500001646F81C0BB
:102D680065F082C066F083C067F084C068F0B4EC98
:102D78001AF000019B5197259B6FA00E9B65C7EF2A
:102D880016F0C9EF16F0CBEF16F0A00E9B6F0001FE
:102D9800994B9A2B8E51995D8F519A59D8A0D7EF9C
:102DA80016F0D9EF16F003EF16F012000101086FC4
:102DB80001010851D8B4E3EF16F0E5EF16F007EF7C
:102DC80017F003BFECEF16F0EAEF16F007EF17F075
:102DD80000C104F101C105F102C106F103C107F107
:102DE800041F051F061F071F042B000E05230623BB
:102DF800072304C10AF105C10BF106C10CF107C193
:102E08000DF10FEF17F000C10AF101C10BF102C17A
:102E18000CF103C10DF10051011102110311D8A4E5
:102E280018EF17F01AEF17F024EF17F0000E006FE5
:102E3800000E016F000E026F000E036FB5EF17F062
:102E4800960E096F2EEF17F0092BD8900D330C331F
:102E58000B330A33000E0A15046F000E0B15056FAD
:102E6800000E0C15066FFE0E0D15076F04510511A7
:102E780006110711D8A443EF17F045EF17F028EF14
:102E880017F053EF17F0092B010E0A27000E0B233A
:102E98000C230D23D8900D330C330B330A33000E5B
:102EA8000A15046F000E0B15056F000E0C15066F42
:102EB800FF0E0D15076F0451051106110711D8A44F
:102EC80068EF17F06AEF17F047EF17F072EF17F097
:102ED8000907D8900A370B370C370D370CBF77EF37
:102EE80017F079EF17F081EF17F0020E09617FEF05
:102EF80017F081EF17F06CEF17F009B186EF17F0B4
:102F080088EF17F089EF17F00C9FD890093309C1A3
:102F180004F1056B066B076B04C107F1066B056BC3
:102F2800046B04510A1305510B1306510C13075176
:102F38000D130851D8B4A3EF17F0A5EF17F0ADEFB4
:102F480017F003BFACEF17F0AAEF17F0ADEF17F0CB
:102F58000D8F0AC100F10BC101F10CC102F10DC1C5
:102F680003F11200096E0950D8B4BDEF17F0BFEF96
:102F780017F0E1EF17F004BEC6EF17F0C4EF17F033
:102F8800E1EF17F001C005F002C006F003C007F03A
:102F980004C008F0051E061E071E081E052A000E9E
:102FA80006220722082205C00BF006C00CF007C055
:102FB8000DF008C00EF0E9EF17F001C00BF002C0E9
:102FC8000CF003C00DF004C00EF001500210031005
:102FD8000410D8A4F2EF17F0F4EF17F0FEEF17F093
:102FE800000E016E000E026E000E036E000E046EDF
:102FF8008FEF18F0960E0A6E08EF18F00A2AD8908C
:103008000E320D320C320B32000E0B14056E000E10
:103018000C14066E000E0D14076EFE0E0E14086ECC
:103028000550061007100810D8A41DEF18F01FEF60
:1030380018F002EF18F02DEF18F00A2A010E0B26EF
:10304800000E0C220D220E22D8900E320D320C32B8
:103058000B32000E0B14056E000E0C14066E000EDB
:103068000D14076EFF0E0E14086E0550061007109B
:103078000810D8A442EF18F044EF18F021EF18F028
:103088004CEF18F00A06D8900B360C360D360E3673
:103098000DBE51EF18F053EF18F05BEF18F0020E69
:1030A8000A6059EF18F05BEF18F046EF18F00AB015
:1030B80060EF18F062EF18F063EF18F00D9ED890EB
:1030C8000A320AC005F0066A076A086A05C008F0ED
:1030D800076A066A056A05500B1206500C1207505B
:1030E8000D1208500E120950D8B47DEF18F07FEF7A
:1030F80018F087EF18F004BE86EF18F084EF18F088
:1031080087EF18F00E8E0BC001F00CC002F00DC056
:1031180003F00EC004F01200000E126E10BE99EFFC
:1031280018F097EF18F0ABEF18F0101E0F1E0E1ED8
:103138000D1E0C1E0B1E0A1E096C000E0A220B2205
:103148000C220D220E220F221022010E126E08BE32
:10315800B2EF18F0B0EF18F0C4EF18F0081E071E11
:10316800061E051E041E031E021E016C000E02220E
:10317800032204220522062207220822010E121A1F
:1031880020EE13F0070EDE6AE806FDE209500A1089
:103198000B100C100D100E100F101010D8B4D7EF24
:1031A80018F0D9EF18F02BEF19F0010E116EE7EFB8
:1031B80018F0D89009360A360B360C360D360E360E
:1031C8000F361036112A10AEECEF18F0EEEF18F0AB
:1031D800DDEF18F0D8901336143615361636173634
:1031E800183619361A360950015C0A5002580B5025
:1031F80003580C5004580D5005580E5006580F50DF
:10320800075810500858D8A00CEF19F00EEF19F015
:103218001FEF19F00950015E0A50025A0B50035A69
:103228000C50045A0D50055A0E50065A0F50075AA2
:103238001050085A1380D89010320F320E320D32C7
:103248000C320B320A320932112EEEEF18F01250FE
:10325800D8B431EF19F033EF19F043EF19F01A1E13
:10326800191E181E171E161E151E141E136C000E8E
:103278001422152216221722182219221A2213C0E4
:1032880001F014C002F015C003F016C004F017C016
:1032980005F018C006F019C007F01AC008F01200AF
:1032A800000E126E08BE5DEF19F05BEF19F06FEFBC
:1032B80019F0081E071E061E051E041E031E021E08
:1032C800016C000E02220322042205220622072294
:1032D8000822010E126E10BE76EF19F074EF19F085
:1032E80086EF19F0101E0F1E0E1E0D1E0C1E0B1E53
:1032F8000A1E096C000E0A220B220C220D220E2235
:103308000F22102209500A100B100C100D100E106D
:103318000F101010D8B493EF19F095EF19F0DDEFF6
:1033280019F0010E116EA3EF19F0D89009360A367C
:103338000B360C360D360E360F361036112A10AEF7
:10334800A8EF19F0AAEF19F099EF19F00950015CEC
:103358000A5002580B5003580C5004580D50055889
:103368000E5006580F50075810500858D8A0BFEFF5
:1033780019F0C1EF19F0D1EF19F00950015E0A50A8
:10338800025A0B50035A0C50045A0D50055A0E504D
:10339800065A0F50075A1050085AD89010320F3258
:1033A8000E320D320C320B320A320932112EAAEFCC
:1033B80019F01250D8B4E3EF19F0E5EF19F0F5EF72
:1033C80019F0081E071E061E051E041E031E021EF7
:1033D800016C000E02220322042205220622072283
:1033E800082201C001F002C002F003C003F004C0CB
:1033F80004F005C005F006C006F007C007F008C0D5
:1034080008F0120060C141F161C142F162C143F1AB
:1034180063C144F144EC09F0200E0101646FFF0E12
:10342800656F5F51070D010E5B25666F000E5C210D
:10343800676F66C1F6FF67C1F7FF0900F5CF68F14E
:103448000900F5CF69F1F3506827F45069236451F6
:1034580068276551692368C1F6FF69C1F7FF21EE46
:103468006FF0060E0900F5CFDEFFE806FBE26FBF3E
:1034780040EF1AF042EF1AF053EF1AF071516F252E
:103488005D25646F6405026F70515E25036F800EC1
:10349800046F6F515D2562EC1FF064EF1AF06F51F5
:1034A800020DF35071255D25646F6405026F70513C
:1034B8005E25036F800E046F6F515D2562EC1FF06F
:1034C800000E01016E6F000E6D6FA8EF1AF06D51BE
:1034D8007425646F6E517521656F64C1F6FF65C10F
:1034E800F7FF0800F5CF66F166390F0B6A6F6D516B
:1034F8007425646F6E517521656F64C1F6FF65C1EF
:10350800F7FF0800F5500F0B6B6F000E6C6F9DEF07
:103518001AF06B51020D970EF324D96E010EF420A8
:10352800DA6EDECF02F1DDCF03F151EC21F00101BB
:103538006C2B6A516C5DD8A0A4EF1AF0A6EF1AF0B4
:103548008DEF1AF06D4B6E2B72516D5D73516E5984
:10355800D8A0B1EF1AF0B3EF1AF06BEF1AF012001F
:1035680065C042F066C043F067C044F068C045F0EB
:10357800B1EC0EF0200E0001696FFF0E6A6F645106
:10358800070D010E60256B6F000E61216C6F6BC01B
:10359800F6FF6CC0F7FF0900F5CF6DF00900F5CF15
:1035A8006EF0F3506D27F4506E2369516D276A5100
:1035B8006E236DC0F6FF6EC0F7FF20EE74F0060EA6
:1035C8000900F5CFDEFFE806FBE274BFEEEF1AF064
:1035D800F0EF1AF001EF1BF0765174256225696F40
:1035E8006905036E75516325046E800E056E74516E
:1035F8006225FAEC1FF012EF1BF07451020DF35024
:1036080076256225696F6905036E75516325046E19
:10361800800E056E74516225FAEC1FF0000E000151
:10362800736F000E726F56EF1BF072517925696F38
:1036380073517A216A6F69C0F6FF6AC0F7FF080004
:10364800F5CF6BF06B390F0B6F6F72517925696F7E
:1036580073517A216A6F69C0F6FF6AC0F7FF0800E4
:10366800F5500F0B706F000E716F4BEF1BF0705120
:10367800020D970EF324D96E010EF420DA6EDECF18
:1036880003F0DDCF04F07BEC21F00001712B6F51CA
:10369800715DD8A052EF1BF054EF1BF03BEF1BF00D
:1036A800724B732B7751725D78517359D8A05FEFC5
:1036B8001BF061EF1BF019EF1BF01200000E116EEA
:1036C800000E106E000E0F6E000E0E6E6EEF1BF0E9
:1036D800084A092A08C0F6FF09C0F7FF0800F55094
:1036E800200AD8B47AEF1BF07CEF1BF06CEF1BF0CC
:1036F800F70E0A6EFF0E0B6E08C0F6FF09C0F7FF43
:103708000800F5500C6E0D6A0A500C260B500D225D
:103718000D5009E1050E0C5CD8A095EF1BF097EF52
:103728001BF06CEF1BF0A1EF1BF0000E0F6E010EEB
:103738000E6E084A092AD6EF1BF008C0F6FF09C02A
:10374800F7FF0800F5500A6E0B6A0B50000AD8B450
:10375800B0EF1BF0D6EF1BF00A502B0AD8B49DEF40
:103768001BF0060AD8B499EF1BF0D6EF1BF010C077
:1037780001F011C002F0000E046E0A0E036E0CEC8C
:1037880021F008C0F6FF09C0F7FF0800F550015EF8
:10379800000E025A300E0124106E000E0220116E27
:1037A8009DEF1BF0D00E0A6EFF0E0B6E08C0F6FFE1
:1037B80009C0F7FF0800F5500C6E0D6A0A500C2678
:1037C8000B500D220D5009E10A0E0C5CD8A0EFEF4A
:1037D8001BF0F1EF1BF0BBEF1BF00E500F10D8A43D
:1037E800F8EF1BF0FAEF1BF008EF1CF010C00AF01E
:1037F80011C00BF00A1E0B1E0A4A0B2A0AC008F059
:103808000BC009F00CEF1CF010C008F011C009F053
:103818001200010139353A35406F4051D8A417EFED
:103828001CF019EF1CF023EF1CF0000E376F000E90
:10383800386F000E396F000E3A6F90EF1CF037C1E9
:103848003BF138C13CF139C13DF13AC13EF1200E9E
:1038580033EF1CF0D8903E333D333C333B33E82EF6
:103868002EEF1CF03B513F6F398FFF0E3717FF0EBD
:103878003817FF0E3917000E3A17960E405F40BFF3
:103888004AEF1CF048EF1CF060EF1CF04051800A32
:10389800970FD8B052EF1CF054EF1CF056EF1CF005
:1038A80019EF1CF0D8903A33393338333733403F67
:1038B80056EF1CF078EF1CF01F0E406566EF1CF009
:1038C80068EF1CF070EF1CF019EF1CF0D890373738
:1038D800383739373A3740074051D8A476EF1CF0CB
:1038E80078EF1CF06AEF1CF03F51D8B47EEF1CF063
:1038F80080EF1CF088EF1CF03A1F391F381F376D16
:10390800000E382339233A2337C137F138C138F14B
:1039180039C139F13AC13AF112003A343B34416EB7
:103928004150D8A49AEF1CF09CEF1CF0A6EF1CF0B5
:10393800000E386E000E396E000E3A6E000E3B6EA9
:1039480013EF1DF038C03CF039C03DF03AC03EF0EE
:103958003BC03FF0200EB6EF1CF0D8903F323E320D
:103968003D323C32E82EB1EF1CF03C50406E3A8EAE
:10397800FF0E3816FF0E3916FF0E3A16000E3B16CC
:10398800960E415E41BECDEF1CF0CBEF1CF0E3EF8D
:103998001CF04150800A970FD8B0D5EF1CF0D7EF34
:1039A8001CF0D9EF1CF09CEF1CF0D8903B323A3257
:1039B80039323832413ED9EF1CF0FBEF1CF01F0EB4
:1039C8004164E9EF1CF0EBEF1CF0F3EF1CF09CEF07
:1039D8001CF0D890383639363A363B3641064150D5
:1039E800D8A4F9EF1CF0FBEF1CF0EDEF1CF04050F1
:1039F800D8B401EF1DF003EF1DF00BEF1DF03B1ED7
:103A08003A1E391E386C000E39223A223B2238C041
:103A180038F039C039F03AC03AF03BC03BF01200F8
:103A280003500410D8B41BEF1DF01DEF1DF026EF56
:103A38001DF003500410D8A424EF1DF026EF1DF04C
:103A48002BEF1DF00150A3EC21F078EF1DF020EED4
:103A580009F00350D9260450DA22DE50DE10D8B41B
:103A680038EF1DF03AEF1DF055EF1DF020EE09F08C
:103A78000350D9260450DA2210EE03F00350E12651
:103A88000450E222DE50E65CE650800A096EDE5001
:103A9800800A0958D8B053EF1DF055EF1DF078EFA4
:103AA8001DF020EE03F00350D9260450DA22DECFB1
:103AB80005F0DDCF06F003C0D9FF04C0DAFFDECF82
:103AC80007F0DDCF08F005500724D96E065008200E
:103AD800DA6E01C0DFFF20EE03F00350D926045050
:103AE800DA22DE2A000EDD2212005CA07EEF1DF035
:103AF80080EF1DF08AEF1DF013C00AF014C00BF020
:103B080011C00CF012C00DF040EC20F016BE8FEF83
:103B18001DF091EF1DF097EF1DF015C01AF016C0BB
:103B28001BF09BEF1DF0000E1B6E000E1A6E000EB0
:103B3800196E000E186EADEF1DF0000E026E200E0D
:103B4800016E11C003F012C004F014EC1DF0184A05
:103B5800192A1A50185C1950800A176E1B50800ACF
:103B68001758D8A0BAEF1DF0BCEF1DF0A1EF1DF05B
:103B78005CB0C1EF1DF0C3EF1DF0CDEF1DF013C019
:103B88000AF014C00BF011C00CF012C00DF040EC9C
:103B980020F013C001F014C002F08AEC1FF01A5094
:103BA8000124116E1B500220126E12000101016FD8
:103BB800C6BAE1EF1DF0E3EF1DF027EF1EF001019B
:103BC8000151040D010EF326000EF4224C0EF324CD
:103BD800F66E670EF420F76E0800F5CFC7FF0151A7
:103BE800040D4C0EF324F66E670EF420F76E0800F1
:103BF800F5CFC6FF000EC56E0151040D020EF32667
:103C0800000EF4224C0EF324F66E670EF420F76EC5
:103C18000800F5CFC8FF0151040D030EF326000E6E
:103C2800F4224C0EF324F66E670EF420F76E0800AB
:103C3800F5CF00F100470047004794500019F70BF3
:103C48000019946EC68A1200F28EF28CE40E0101FD
:103C5800006F3C0E016F8FEC21F09EEC21F08C8EF2
:103C6800000EDAEC1DF023EC12F0000E0101076FD4
:103C7800000E066FB1EC1FF0C70E0101766F7F0EC4
:103C8800776F050E786F000E796FF20E7A6F7F0EE0
:103C98007B6F070E7D6FE00E7C6F000E7F6F000E4E
:103CA8007E6F02EC15F0C10E0101766F7F0E776F03
:103CB800100E786F5A0E796FE60E7A6F7F0E7B6F53
:103CC800F80E7D6F000E7C6F000E7F6F000E7E6F0A
:103CD80002EC15F004006EEF1EF012000001B12B8B
:103CE8003B0EB119D8A47BEF1EF07DEF1EF080EFDC
:103CF8001EF0000EB16FB02B3B0EB019D8A487EFA1
:103D08001EF089EF1EF08CEF1EF0000EB06FB22B84
:103D1800D30E606F000E616FCA0E626F7F0E636F05
:103D2800B2C064F0656BB0C066F0676BB1C068F094
:103D3800696B10EC1FF0C40E00017B6F7F0E7C6F67
:103D4800000E7D6F280E7E6FD30E7F6F000E806F82
:103D5800FF0E826F8169000E846F000E836FEEEC98
:103D680015F0120056C05AF057C05BF0000E000163
:103D7800AB6F000EAA6FD4EF1EF054C040F055C0D0
:103D880041F05A0E426E000E436E58C044F059C0BE
:103D980045F07AEC10F040500001AA274150AB23BF
:103DA8005AC0F6FF5BC0F7FF0800F5500009D8A419
:103DB800E0EF1EF0E2EF1EF0C1EF1EF0AAC054F0D3
:103DC800ABC055F0120000C102F101C103F1F0EFE0
:103DD8001EF00101004B012B00C1F6FF01C1F7FFE6
:103DE800F86A050EF76403D00800F55005D0F6CF41
:103DF800E9FFF7CFEAFFEF500009D8A406EF1FF05C
:103E080008EF1FF0EDEF1EF001010251005D006F99
:103E180003510159016F1200640E00016A6F000E10
:103E28006B6F60C06CF061C06DF0000E706F000EBB
:103E38006F6F000E766F000E756F6C0E546E000E6D
:103E4800556E62C056F063C057F06A0E586E000E89
:103E5800596EB6EC1EF000016F516025D96E705195
:103E68006121DA6E000EDF6E1200010E076E200E61
:103E780001180210D8B443EF1FF045EF1FF05EEFB2
:103E88001FF0F70E036EFF0E046E01C005F002C0AE
:103E980006F00350052604500622065009E1050ED7
:103EA800055CD8A05AEF1FF05CEF1FF05EEF1FF023
:103EB800000E076E07C001F0026A12000101056FCB
:103EC8002A0E5AEC21F0000E74EC21F00101055184
:103ED80074EC21F0000E74EC21F00101025174EC35
:103EE80021F02B0E5AEC21F0000E74EC21F00101A8
:103EF800035174EC21F0000E74EC21F0010104511F
:103F080074EC21F02C0E5AEC21F0120001C003F0E1
:103F180002C004F092EF1FF0014A022A01C0F6FF26
:103F280002C0F7FFF86A050EF76403D00800F550E1
:103F380005D0F6CFE9FFF7CFEAFFEF500009D8A484
:103F4800A8EF1FF0AAEF1FF090EF1FF00350015CDD
:103F5800016E04500258026E1200500E0101096FE2
:103F6800000E086FA00E026F000E036F800E046F24
:103F7800000E62EC1FF0C7EF1FF006C102F107C187
:103F880003F151EC21F001010807D8A0090708291D
:103F980006E10929D8A4D3EF1FF0D5EF1FF0C1EF30
:103FA8001FF01200000E01013B1B000E3C1B000E0F
:103FB8003D1B800E3E1B37C127F138C128F139C19E
:103FC80029F13AC12AF13BC12BF13CC12CF13DC189
:103FD8002DF13EC12EF158EC00F027C137F128C170
:103FE80038F129C139F12AC13AF11200066E2A0EB8
:103FF80082EC21F0000E99EC21F0065099EC21F0AA
:10400800000E99EC21F0035099EC21F02B0E82EC74
:1040180021F0000E99EC21F0045099EC21F0000EEB
:1040280099EC21F0055099EC21F02C0E82EC21F04E
:104038001200000E3C1A000E3D1A000E3E1A800EA9
:104048003F1A38C028F039C029F03AC02AF03BC0DE
:104058002BF03CC02CF03DC02DF03EC02EF03FC0F0
:104068002FF0B9EC02F028C038F029C039F02AC086
:104078003AF02BC03BF01200000E106E000E0F6ECF
:1040880051EF20F00EC001F0026A0CC003F00DC021
:1040980004F014EC1DF00F4A102A0F500A24D96EB0
:1040A80010500B20DA6EDF500E6E0E50D8A45FEF62
:1040B80020F061EF20F046EF20F0120014BE6FEF01
:1040C80020F0145006E11304D8B06DEF20F06FEF24
:1040D80020F07DEF20F013C015F014C016F0151E67
:1040E800161E154A162A15C013F016C014F081EFD3
:1040F80020F013C013F014C014F01200D00E036E99
:10410800FF0E046E01C005F002C006F0035005263C
:104118000450062206500AE10A0E055CD8A097EF63
:1041280020F09AEF20F0010E9BEF20F0000E016EB8
:10413800026A1200000E8D6E000E8C6E000E896EE3
:10414800000E8A6E000E8B6E070E966E926893684C
:10415800D60E946E780E956E7E681F0E7F6E000EDA
:104168007C6EF18E12000001DF51E011D8B4BFEF70
:1041780020F0C1EF20F0CEEF20F002D8CEEF20F0F3
:104188000500FA6EDF51FD6EE051FE6EF850FF6ECD
:10419800FA501200120001EE97F0240EEE6AE806BB
:1041A800FDE100EEAAF0350EEE6AE806FDE15D6A73
:1041B8005C6A5E905E92000EF86E000189EF21F055
:1041C800800ECF6E000ECE6ECECFE1F0CFCFE2F0F4
:1041D8009E909D80440E0101006F430E016F8FEC8D
:1041E80021F00B0ECD6E1200CDA4FDEF20F0FFEFF5
:1041F80020F007EF21F0CD900250CF6E01C0CEFF26
:10420800CD800BEF21F00250CF6E01C0CEFF12001F
:1042180001500302F3CF05F0F4CF06F00150040279
:10422800F350062602500302F350062605C001F09B
:1042380006C002F012000101006F00C1C9FF9EA66E
:1042480028EF21F02AEF21F023EF21F09E96C950A4
:104258001200A0EC21F063EC21F09EEC20F094EC2D
:1042680021F06CEC21F0E4EC20F01200016E01C0AA
:10427800C9FF9EA642EF21F044EF21F03DEF21F067
:104288009E96C95012009E90E1C001F0E2C002F073
:10429800F8EC20F0B7EC20F012000101035174ECA7
:1042A80021F00101025174EC21F012000101016FAB
:1042B8008C94010101511FEC21F08C841200400EF6
:1042C800C76E000EC66E010EC86E9496C69A12008E
:1042D8007F0ECB6E000ECC6E9E92000ECA6E120040
:1042E8000101016F010101511FEC21F0120004507E
:1042F80099EC21F0035099EC21F01200026E8C9495
:1043080002503AEC21F08C8412002DEC21F028ECBC
:104318001EF056EF00F000C1DFF001C1E0F012001E
:10432800600ED36E400E9B6E1200026E02503AEC85
:1043380021F01200CD801200D09E1200120012004F
:1065700000000000000000005F00000007000700AE
:10658000147F147F14242A7F2A122313086462368E
:10659000495620500008070300001C22410000411A
:1065A000221C002A1C7F1C2A08083E080800807054
:1065B0003000080808080800006060002010080487
:1065C000023E5149453E00427F40007249494946DA
:1065D0002141494D331814127F1027454545393C58
:1065E0004A49493141211109073649494936464945
:1065F00049291E0000140000004034000000081467
:1066000022411414141414004122140802015909DF
:10661000063E415D594E7C1211127C7F4949493634
:106620003E414141227F4141413E7F494949417FAD
:10663000090909013E414151737F0808087F004163
:106640007F41002040413F017F081422417F4040AC
:1066500040407F021C027F7F0408107F3E41414181
:106660003E7F090909063E4151215E7F09192946ED
:10667000264949493203017F01033F4040403F1F03
:106680002040201F3F4038403F6314081463030438
:106690007804036159494D43007F41414102040898
:1066A0001020004141417F0402010204404040406B
:1066B00040000307080020545478407F28444438A1
:1066C0003844444428384444287F385454541800EB
:1066D000087E090218A4A49C787F0804047800446A
:1066E0007D40002040403D007F1028440000417F55
:1066F00040007C047804787C0804047838444444DE
:1067000038FC1824241818242418FC7C08040408D5
:10671000485454542404043F44243C4040207C1CEE
:106720002040201C3C4030403C44281028444C90E1
:1067300090907C4464544C4400083641000000773B
:10674000000000413608000201020402004001007E
:10675000012C2D005080A00000060A00B37F020724
:106760001196001F7B02071196001F7B02071196EE
:10677000001F7B02071196001F7B02071196001F66
:106780007B02071196001F7B02071196001F7B02F8
:10679000071196001F7B02071196001F7B0207114D
:1067A00096001F7B02071196001F7B0207119600BF
:1067B0001F7B0010060400BD7F02071196001F7B9F
:1067C00002071196001F7B02071196001F7B02072C
:1067D0001196001F7B02071196001F7B020711967E
:1067E000001F7B02071196001F7B02071196001FF6
:1067F0007B02071196001F7B02071196001F7B0288
:10680000071196001F7B02071196001F7B020711DC
:1068100096001F7B02071196001F7B02071196004E
:106820001F7B02071196001F7B02071196001F7B3A
:1068300002071196001F7B02071196001F7B0207BB
:106840001196001F7B02071196001F7B020711960D
:10685000001F7B02071196001F7B02071196001F85
:106860007B02071196001F7B02071196001F7B0217
:10687000071196001F7B02071196001F7B0207116C
:1068800096001F7B02071196001F7B0207119600DE
:106890001F7B02071196001F7B02071196001F7BCA
:1068A00002071196001F7B02071196001F7B02074B
:1068B0001196001F7B02071196001F7B020711969D
:1068C000001F7B02071196001F7B02071196001F15
:1068D0007B02071196001F7B02071196001F7B01A8
:1068E000070E7C00C97C02071196001F7B0207116E
:1068F00096001F7B02071196001F7B02071196006E
:106900001F7B02071196001F7B02071196001F7B59
:1069100002071196001F7B02071196001F7B010BD7
:106920000A58001E7E02071196001F7B020711966F
:10693000001F7B02071196001F7B010B0B5800768E
:106940007E02071196001F7B02071196001F7B0233
:10695000071196001F7B02071196001F7B0207118B
:1069600096001F7B02071196001F7B0207119600FD
:106970001F7B02071196001F7B02071196001F7BE9
:1069800002071196001F7B02071196001F7B02076A
:106990001196001F7B020B062C006C7F010B0A5422
:1069A00000CE7E02071196001F7B02071196001F82
:1069B0007B02071196001F7B02071196001F7B02C6
:1069C000071196001F7B000B0B6800B67D020711B4
:1069D00096001F7B02071196001F7B02071196008D
:1069E0001F7B02071196001F7B02071196001F7B79
:1069F0000000174A00227F000F13E0009C76000F72
:106A000013E0009C76000F13E0009C76000F13E06B
:106A1000009C76000F13E0009C76000F13E0009CB2
:106A200076000F13E0009C76000F13E0009C7600C8
:106A30000F13E0009C76000F13E0009C76000F130C
:106A4000E0009C76000F13E0009C76000F13E0003E
:106A50009C76000F13E0009C76000F13E0009C76FC
:106A6000000F13E0009C76000F137100457D000FAE
:106A700013AD00CF79000F13B5001A79000F138EF4
:106A800000B57B000F13A3007C7A000F13CB004FDF
:106A900078000F138600437C000F13E400B87500E4
:106AA0000F13D3007C77000F13E0009C76000F13C8
:106AB000E0009C76000F13E0009C76000F13E000CE
:106AC0009C76000F13E0009C76000F13E0009C768C
:106AD000000F13E0009C76000F13E0009C76000F7F
:106AE00013E0009C76000F13E0009C76000F13E08B
:106AF000009C76000F13E0009C76000F13E0009CD2
:106B000076000F13E0009C76000F13E0009C7600E7
:106B10000F13E0009C76000F13E0009C76000F132B
:106B2000E0009C76000F13E0009C76000F13E0005D
:106B30009C76000F13E0009C76000F13E0009C761B
:106B4000000F13E0009C76000F13E0009C76000F0E
:106B500013E0009C76000F13E0009C76000F13E01A
:106B6000009C76000F13E0009C76000F13E0009C61
:106B700076000F13E0009C76000F13E0009C760077
:106B80000F13E0009C76000F13E0009C76000F13BB
:106B9000E0009C76000F13E0009C76000F13E000ED
:106BA0009C76000F13E0009C76000F13E0009C76AB
:106BB000000F13E0009C76000F13E0009C76000F9E
:106BC00013E0009C76000F13E0009C76000F13E0AA
:106BD000009C76000F13E0009C76000F13E0009CF1
:106BE00076000F13E0009C76000F13E0009C760007
:106BF0000F13E0009C76000F13E0009C76000F134B
:106C0000E0009C76000F13E0009C76000F13E0007C
:106C10009C76000F13E0009C76000F13E0009C763A
:106C2000000F13E0009C76000F13E0009C76000F2D
:106C300013E0009C76000F13E0009C76000F13E039
:106C4000009C76000F13E0009C76000F13E0009C80
:106C500076000F13E0009C76000F13E0009C760096
:106C60000F13E0009C76000F13E0009C76000F13DA
:106C7000E0009C76000F13E0009C76000F13E0000C
:106C80009C76000F13E0009C7600000A1B00987FA2
:106C9000020A174D010172020A174D010172020A20
:106CA000174D010172020A174D010172020A174DB8
:106CB000010172020A174D010172020A174D01010A
:106CC00072020A174D010172020A174D0101720288
:106CD0000A174D010172020A174D010172020A17CB
:106CE0004D010172020A174D010172020A174D018E
:106CF0000172020A174D010172020A168301226F06
:106D0000020A174D010172020A174D010172020AAF
:106D10001343014E73020A174D010172020A174D07
:106D2000010172020A174D010172020A174D010199
:106D300072020A174D010172020A174D0101720217
:106D40000A174D010172020A174D010172020A175A
:106D50004D010172020A174D010172020A174D011D
:106D60000172020A174D010172020A174D010172E8
:106D7000020A174D0101720207185C01A570020A90
:106D8000174D010172020A174D010172020A174DD7
:106D9000010172020A174D010172020A174D010129
:106DA00072020A174D010172020A174D01017202A7
:106DB0000A174D010172020A174D010172020A17EA
:106DC0004D010172020A174D010172020A174D01AD
:106DD0000172020A174D010172020A174D01017278
:106DE000020A174D010172020A174D010172020ACF
:106DF000174D010172020A174D010172020A174D67
:106E0000010172020A174D010172020A174D0101B8
:106E100072020A174D010172020A174D0101720236
:106E20000A174D010172020A174D010172020A1779
:106E30004D010172020A174D010172020A174D013C
:106E40000172020A174D010172020A174D01017207
:106E5000020A174D010172020A174D010172020A5E
:106E6000174D010172020A174D010172020A174DF6
:106E7000010172020A174D010172020A174D010148
:106E800072020C1627019174020A174D0101720259
:106E90000A174D010172020A174D010172020A1709
:106EA0004D010172020A174D010172020A174D01CC
:106EB0000172020A174D010172020A174D01017297
:106EC000020A174D010172020A174D010172020AEE
:106ED000174D010172020A174D010172020A174D86
:106EE000010172020A174D010172020A174D0101D8
:106EF00072020A174D010172020A174D0101720256
:106F00000A174D010172020A174D010172020A1798
:106F10004D010172020A174D010172020A174D015B
:106F2000017250161A1D6F1B18241160151E1F1DAB
:106F3000183416181C1E3F1E1240161F1D149015E3
:106F40001D2F1830131F1B11C01A2F14201B1F12C6
:106F5000E0161F1D10121F1C2013121011171B1AF0
:106F600011101140161F14171F1710161F1E141C86
:106F70001F1C1F1A181F1D111012151F19181F147E
:106F8000121E4F1610194F1A101E2F1C181F1418FE
:106F90004F162011191C3F183F1B181F131E2F18C6
:106FA0001260184F151410181F1E3F1170134F1840
:106FB00020184F1E904F19201A1F15101F1C901FCC
:106FC0001E171F1C201C1F201F1A80131F1C111F9F
:106FD0001C201C1F201F1880141F1A101F1C201C8F
:106FE0001F201F1880171F18141F1C201C1F201F74
:106FF0001A80181F241F19201C1F12101E1C801C11
:107000001F10161F1720191F14101C1D70111F1C94
:1070100010181F1420151F1710191F1360161F17A3
:10702000101C1F11301F1B10131F19601E1F111081
:107030001F1E401D1F201C1E1340161F1A10151F57
:107040001940171F1510141F1C1120111E1F12109C
:107050001B1F1240111F1B201B1F1913171E1F1669
:1070600010121F1C60181F1410111D3F1E13201D2D
:107070001F1260111E1C111011171815301A1F173E
:1070800080161F1C1160161F1DA0181F1E15301220
:10709000191F1D11B0141E2F1B3F1D11D011161BDF
:1070A0002C1B171180A0171D6F1B14C0111C3F183B
:1070B00014194F1A1190131D1F2B1F14131A1F1987
:1070C000131B1F1C1170111E1F1E111A5F1A201E88
:1070D0001F1A70172F1E1D2F1A15171E1F1B1A3F60
:1070E00013601D1F1C3F1330113F1A151F1A50113A
:1070F0001F1C102F1650181F1D201C1E50142F1D52
:107100002F1450141F1C201C1F602F1D2F1C5015E6
:107110001F1E16182F602E13192F50196F60161F7F
:107120002E1F1B501D1F1A14181F1E701C2F1C13FE
:1071300040182F20161F1AF0142F1910111D1F129E
:10714000E0131E3F1C2F19E0151E1F17111E2F1DC7
:1071500011D0152F1610111D2F13D0131E3F1B1EFB
:107160001F1D11D0111D1F1A111E2F1D11E01B1FF5
:107170001B10111E1F1AF0182F17141E1F16F013C4
:107180006F16F0101C1F13142F17F010161F171076
:10719000191F1AF0201D1F181A1F1CF020175F124C
:1071A000F010111E1F152F15F020191F16131F1B8D
:1071B000F020121F1E111C1F12F0201A4F18F02071
:1071C000151F1C1B2F11F0201D1F11181F18F02058
:1071D000181F1B142EF020131E4F16F010111C1F29
:1071E000192F1EF020191F1C101C1F15F020191F2D
:1071F0001B141F1CF030124F14F04012151814F01D
:1072000040501115181B1C4F1C1B161280141B3FDD
:107210002C381A1E2F1E1460191F1D191480121AE3
:107220002F1640191F17D0151E1F1520121F196089
:10723000161420132D1110181F1E1210191F1210D2
:10724000191F1910182F18111D2F1B111E2F1B107D
:107250001C1F151C3F181F1D1F1E1B1F181A5F1C0B
:10726000101C3F1A1D3F233F20193F1C1310132FE2
:107270001810181F1B1120181F1C30111D1F401A39
:107280001F1B171D1F1530112F401B1F40185F14A7
:10729000401C1F402F1230111B28161411401B1FB9
:1072A000402F14E01F1C30142F11D0171F16301957
:1072B0001F16D0131F1D401E1F11C0111C1F13309D
:1072C000161F18D01B1F1730111D1F11C01A1F1AAF
:1072D000401A1F16C0181F1C401A1F1AC0161F1D67
:1072E00011301A1F1D11B0162F11301A1F1D13B0A7
:1072F000142F1320111A1F1D1150111340111D1F9F
:107300001620131C1F1E1413271A1B3F16301C1F98
:107310001A301D8F1D1C1D1F1B20131F1D11301C1B
:107320001F1E1C281413401B1F20141F165014A0CE
:10733000151F20141F19F010111F20142F1733B020
:10734000141A1F2011BF4B1E4F3015F83817601448
:1073500027161311A012191E5F1E191370172F1B69
:1073600015141214193F1D151130191F1A1260112E
:10737000161E2F1C1110111F1B1011161520191885
:107380001120161E1F1A10161F12111C1F1D101778
:107390002F17101312111D1F141B1C101C1F1D1F53
:1073A000181E2F1C111F1D10121F181C1E181F1A2B
:1073B000111C2F1E2F1D2F15101F1A193F122031BF
:1073C0001E2F1A1F1C161F17112F16601D1F1610B7
:1073D0001C2F1E1110111260112F1210161F1E13D8
:1073E00090111C1F1B20171F1790121C1F1D11101E
:1073F000111C1E11901E1F1A1110141C1F15901421
:107400001F1D20142F18A0121F1E1110111C2F1841
:107410001190191F1D161110121B1F1CA0192F1ED1
:1074200017201A1F19A011171E1F19201B1F12B099
:10743000112F1210121F1820141380161F14201F52
:107440001C101B2F1B1460151F14201F1C181F1746
:10745000182F1C19171516172E20121F191C1F2064
:1074600011171C5F1A1220191F13181F175011240F
:1074700040131F1C10112F17128012172F122014E7
:107480001E2F1D1B471A1C2F1D1350171E8F1E1653
:1074900040F0131917115013191D1A1660111B3FD4
:1074A00015501E4F1C1130111C1F17151F184014AA
:1074B0001F1D221A1F1E1310111C1F13111C1F1237
:1074C000501B2F19231F1E161B1F13141D1F167070
:1074D000161E7F1B182F16A0141A7F1D136012147E
:1074E000571B6F282B3F1E1ADF1E5C2F1C1F1A18FC
:1074F0001544181F1A141F1850151F1C1D801C1B23
:10750000101F18601F2C80181C101F1850141F1CEF
:107510001F1A771D1F181F1C33271D1F1CFF6F14F8
:1075200018151E1F172413181F1B182F381E1F167F
:1075300014302C40141F15121F19302C502C4011E0
:107540001F14101F1830181C502C501F16101F1815
:1075500030181C502C501F18101F1830181C502C9D
:10756000501F18101F1830181C502C501F18101FB7
:107570001830181F502C501F18101F1830181F508B
:107580002C501F18101F1830181F502C501F181087
:107590001F1830181F501F1C501C1B101F1B301BA6
:1075A0001F501F1E571D1E182F1D4F40149F1E5C7D
:1075B0001B1840112F1924E050111317191B18160E
:1075C00013A0141D7F1B12601118AF1E16501BDF75
:1075D000173015EF1E1210111E4F1E152011175FC8
:1075E0001B10174F1E1150135F131A4F1370174FB4
:1075F000161C3F1E80124F184F1C904F1C1D3F1D24
:1076000080124F191A4F1370174F16174F1C601224
:107610001E4F13125F1C1330151E4F1D20176F1EB7
:107620001B7F13301CDF1840121EBF1C5019DF15C2
:107630003014EF1E1110111E5F16121013185F1A6E
:1076400010174F1E1150135F13194F1470184F1558
:107650001C3F1E80134F184F1C904F1C1D3F1D8058
:10766000124F191A4F1270164F16184F1B60111E29
:107670004F14125F1B1230141D4F1D20176F1D1B5E
:107680001E6F13301CDF1840111CBF1970178F1E9E
:10769000149012181A1D1F1C19171150501113178E
:1076A000191B181613A0141D7F1B12601118AF1E92
:1076B00016501BDF173015EF1E1210111E4F1E152E
:1076C0002011175F1B10174F1E1150135F131A4F15
:1076D0001370174F161C3F1E80124F184F1C904FEF
:1076E0001C4F1C904F1C4F1C904F1C4F1C904F1C4C
:1076F0004F1C904F1C4F1C2011171B15304F1C4F57
:107700001C201A3F16204F1C4F1C204F1B204F1CC3
:107710004F1C201B3F17204F1C4F1C20111B1F19F3
:10772000304F1C4F1C904F1C4F1C904F1C4F1C90F7
:107730004F1C4F1C904F1C4F1C904F1C1D3F1D8019
:10774000124F191A4F1270164F16184F1B60111E48
:107750004F14125F1B1230141D4F1D20176F1D1B7D
:107760001E6F13301CDF1840111CBF1970178F1EBD
:10777000149012181A1D1F1C1917115050111317AD
:10778000191B181613A0141D7F1B12601118AF1EB1
:1077900016501BDF173015EF1E1210111E4F1E154D
:1077A0002011175F1B10174F1E1150135F131A4F34
:1077B0001370174F161C3F1E80124F184F1C904F0E
:1077C0001C4F1C904F1C4F1C904F1C1E3F1C904F79
:1077D0002C4F1170154F1C184F19701D4F1C145F42
:1077E0001740111A5F1C101B5F1D1817191E6F1C04
:1077F0001011FF1F1C2014FF1C30121CDF1C501620
:107800001C5F1B154F1C80121413304F1CE04F1CC3
:10781000E04F1CD0124F19D0164F1611181B18111B
:1078200070111E4F14193F1D1450161E4F1D101CB1
:107830006F2B1C7F13101AFF1820111BDF1A501515
:107840001E9F1E17701116181C1E2F1C1A16606022
:1078500014173B1A17141380161D9F181140111985
:10786000CF1E15301BFF141015FF1F18111E5F17B8
:10787000123013194F16174F1E1170141D1F1910B7
:107880001A4F13D01C3F1EE04F1CE04F1CE04F1C52
:10789000E04F1C13191D2F1D1A171250DF1E164022
:1078A000FF1A1120FF1F19208F1C1B1D6F14106F52
:1078B0001B1130131D4F1D105F1B60111E4F145FF5
:1078C0001170154F174F1D80114F194F1C904F1CF1
:1078D0004F1C904F1C4F1C904F1C1D3F1D80124F82
:1078E000191A4F1270164F16184F1B60111E4F14A5
:1078F000125F1B1230141D4F1D20176F1D1B1E6FB2
:1079000013301CDF1840111CBF1970178F1E149004
:1079100012181A1D1F1C19171150401415173B1A65
:10792000161380121B9F1B145018DF163018FF17F8
:10793000201CFF1E12101A4F17123013195F1B1054
:10794000111B1F1B1270135F13D0174F16D0124F4D
:1079500018E04F1CD0124F19D0174F16C0121E4FEF
:1079600013B0151E4F1D6013193B7F1350111EAF2E
:10797000186014AF1C7012BF1570151D9F1E11B03A
:1079800013185F1AD0135F13D0184F15D0134F1868
:10799000E04F1CD0124F19D0164F1611181B18119A
:1079A00070111E4F14193F1D1450161E4F1D101C30
:1079B0006F2B1C7F13101AFF1820111BDF1A501594
:1079C0001E9F1E17701116181C1E2F1C1A166040C1
:1079D0001415173B1A161380121B9F1B145018DF27
:1079E000163018FF17201CFF1E12101A4F171230E6
:1079F00013195F1B10111B1F1B1270135F13D0177D
:107A00004F16D0124F18E04F1CD0124F19D0174FFD
:107A100016C0121E4F13B0151E4F1D701415181BE3
:107A20007F1350131DAF185018BF185019AF1E14F4
:107A300050148F1C18151150111E5F1612A0174FED
:107A40001E11C0194F14D01C3F1EE04F1CA0121372
:107A500012104F1C90162F1E134F1C901D3F1B4FD2
:107A60001C904F1C4F1C904F1C4F1E9B4F1CFF3FE8
:107A70001CFF3F2CFF2F18131CFF1A111119FB17A5
:107A8000101BFF2F17FF3F1CFF3F1CFF3F1C4F1C0D
:107A9000904F1C4F1C904F1C4F1C901E3F1B4F1CA7
:107AA00090183F154F1CA0151814104F1CE04F1CC8
:107AB000E04F1CE04F1CE04F1E5B17141360DF1BF0
:107AC0001140EF1E15301CFF1520121BEF1E11B0C8
:107AD00013185F1AD0135F13D0184F15D0134F1817
:107AE000E04F1CD0124F19D0164F1611181B181149
:107AF00070111E4F14193F1D1450161E4F1D101CDF
:107B00006F2B1C7F13101AFF1820111BDF1A501542
:107B10001E9F1E17701116181C1E2F1C1A16603F70
:107B20001290136F18901A6F1D80111E5F1E1F1583
:107B300070161F1D4F181F1B701D1F174F112F127E
:107B400050132F154F101A1F18501A1F1A144F24B4
:107B50001F1D40111E1F12144F14101E1F1530162A
:107B60001F1C10144F1410171F1B301D1F1610144C
:107B70004F1410112F1210132F20144F14201A1FFE
:107B800018101A1F1920144F1420141F1D111E1F26
:107B90001220144F14301D1F1A1F1C30144F1430A4
:107BA000163F1630144F1430113F40144F14401A32
:107BB0001F1840142F11191B16A011191B17101B89
:107BC0003F16901A3F174F1B904F1C4F1C904F1C95
:107BD0004F1C904F1C4F1C904F1C4F1C904F1C4F24
:107BE0001C904F1C4F1C904F1C4F1C904F1C4F1C47
:107BF000904F1C4F1C904F1C4F1C904F1C4F1C90C3
:107C00004F1C4F1E9B4F1CFF3F1CFF3F2CFF2F1C88
:107C1000121BFF1F1CE04F1CE04F1CE04F1CE04FED
:107C20001CE04F1CE04F1CE04F1CE04F1CE04F1CC1
:107C3000E04F1CE04F1CE04F1CE01B3F18E0121C03
:107C40001F1A111119FB17101BFF2F17FF3F2CFFD5
:107C50002F18111BFF1F11C01C4F18C0145F11C03B
:107C60001C4F18C0145F11C01C4F18C0145F11C006
:107C70001C4F18C0145F11C01C4F18C0145F11C0F6
:107C80001C4F18C0145F11C01C4F18C0145F11C0E6
:107C90001C4F18C0145F11C01C4F18C0145F11C0D6
:107CA0001C4F18C0145F11C01C4F18C0145F11C0C6
:107CB0001C4F18C0145F11C01A4F18D05F11D01C90
:107CC0003F18E0131C1F1A11E01D1F1B701C1F1E04
:107CD00011142F1750152F1420191F1E1130111EAB
:107CE0001F1B30111E1F1A30192F1140142F151091
:107CF000142F16601B1F1D111D1F1C70112F1D2F0F
:107D00001280163F18A03F1190183F1980132F1BA7
