:0400000022EF35F0C6
:10699C001200600ED36E400E9B6E1200026E0250FF
:1069AC0008EC35F01200FFEC34F0C6EC37F000EFD9
:1069BC0000F0026E8C94025008EC35F08C841200BE
:1069CC007F0ECB6E000ECC6E9E92000ECA6E120025
:1069DC000450D4EC34F003508009D4EC34F01200A1
:1069EC00400EC76E000EC66E010EC86E9496C69A07
:1069FC001200F6EC34F040EC35F0CFEC34F0E6EC71
:106A0C0034F01200016E01C0C9FF9EA610EF35F0E4
:106A1C0012EF35F00BEF35F09E96C95012008C94A6
:106A2C00DA0ED4EC34F0948A8C84000E08EC35F039
:106A3C00036E949A0350120000EE60F02A0EEE6A78
:106A4C00E806FDE15F6A5E6A000EF86E0001D9EFA0
:106A5C0034F00A6E0A28036E07C004F00728056E8E
:106A6C000A50BAEC35F008C003F009C004F0EEECA3
:106A7C0034F01200000E8D6E000E8C6E000E896EBE
:106A8C00000E8A6E000E8B6E070E966E92689368DF
:106A9C00D70E946E780E956E7E681F0E7F6E000E6C
:106AAC007C6EF18E12000C6E0C500824036E07C025
:106ABC0004F007C005F00C50BAEC35F008C00BF030
:106ACC006EEF35F009C003F00AC004F0EEEC34F0C0
:106ADC000B060B28D8A475EF35F077EF35F068EF7F
:106AEC0035F0120014BE85EF35F0145006E1130496
:106AFC00D8B083EF35F085EF35F093EF35F013C058
:106B0C0015F014C016F0151E161E154A162A15C0BF
:106B1C0013F016C014F097EF35F013C013F014C037
:106B2C0014F01200000E106E000E0F6EA9EF35F06F
:106B3C000EC001F0026A0CC003F00DC004F061EC51
:106B4C0037F00F4A102A0F500A24D96E10500B2020
:106B5C00DA6EDF500E6E0E50D8A4B7EF35F0B9EFE9
:106B6C0035F09EEF35F01200066E2A0EDFEC34F095
:106B7C00000ED4EC34F00650D4EC34F0000ED4EC0F
:106B8C0034F00350D4EC34F02B0EDFEC34F0000E68
:106B9C00D4EC34F00450D4EC34F0000ED4EC34F0DB
:106BAC000550D4EC34F02C0EDFEC34F01200500E07
:106BBC000A6E000E096EA00E036E000E046E800E9F
:106BCC00056E000EBAEC35F0F2EF35F007C003F0AD
:106BDC0008C004F0EEEC34F00906D8A00A06092827
:106BEC0006E10A28D8A4FDEF35F0FFEF35F0ECEF05
:106BFC0035F0120001C003F002C004F008EF36F0CB
:106C0C00014A022A01C0F6FF02C0F7FFF86A050E1E
:106C1C00F76403D00800F55005D0F6CFE9FFF7CFA5
:106C2C00EAFFEF500009D8A41EEF36F020EF36F043
:106C3C0006EF36F00350015C016E04500258026EF0
:106C4C0012005C0E00018A6F000E8B6F58C08CF026
:106C5C0059C08DF0000E906F000E8F6F000E966F66
:106C6C00000E956F8C0E506E000E516E5AC052F085
:106C7C005BC053F08A0E546E000E556E50EC36F01D
:106C8C0000018F515824D96E90515920DA6E000EA4
:106C9C00DF6E120052C056F053C057F0000E0001C8
:106CAC00616F000E606F6EEF36F050C040F051C057
:106CBC0041F0560E426E000E436E54C044F055C067
:106CCC0045F04AEC3AF040500001602741506123F6
:106CDC0056C0F6FF57C0F7FF0800F5500009D8A4BE
:106CEC007AEF36F07CEF36F05BEF36F060C050F0A8
:106CFC0061C051F01200106E105008240C6E0C0480
:106D0C00036E07C004F0075009240D6E0D04056EC8
:106D1C001050BAEC35F0000E0E6EAAEF36F0000EE5
:106D2C000F6EA0EF36F00AC003F00BC004F0EEECCF
:106D3C0034F00F2A09500F5CD8A0A7EF36F0A9EF5A
:106D4C0036F099EF36F00E2A08500E5CD8A0B1EF51
:106D5C0036F0B3EF36F095EF36F01200026EC6BA8D
:106D6C00BAEF36F0BCEF36F0FFEF36F00250040D00
:106D7C00010EF326000EF422E00EF324F66E7F0EC5
:106D8C00F420F76E0800F5CFC7FF0250040DE00E9B
:106D9C00F324F66E7F0EF420F76E0800F5CFC6FFD5
:106DAC00000EC56E0250040D020EF326000EF422E6
:106DBC00E00EF324F66E7F0EF420F76E0800F5CF8C
:106DCC00C8FF0250040D030EF326000EF422E00E51
:106DDC00F324F66E7F0EF420F76E0800F5CF01F069
:106DEC0001460146014694500118F70B0118946EA8
:106DFC00C68A12005EA005EF37F007EF37F011EFEF
:106E0C0037F013C00AF014C00BF011C00CF012C014
:106E1C000DF098EC35F016BE16EF37F018EF37F092
:106E2C001EEF37F015C01AF016C01BF022EF37F02A
:106E3C00000E1B6E000E1A6E000E196E000E186EF0
:106E4C0034EF37F0000E026E200E016E11C003F00D
:106E5C0012C004F061EC37F0184A192A1A50185C69
:106E6C001950800A176E1B50800A1758D8A041EF92
:106E7C0037F043EF37F028EF37F05EB048EF37F0DC
:106E8C004AEF37F054EF37F013C00AF014C00BF090
:106E9C0011C00CF012C00DF098EC35F013C001F0DD
:106EAC0014C002F000EC36F01A500124116E1B5085
:106EBC000220126E120003500410D8B468EF37F0A1
:106ECC006AEF37F073EF37F003500410D8A471EF6A
:106EDC0037F073EF37F078EF37F00150CEEC34F039
:106EEC00C5EF37F020EE09F00350D9260450DA2212
:106EFC00DE50DE10D8B485EF37F087EF37F0A2EF15
:106F0C0037F020EE09F00350D9260450DA2210EEA7
:106F1C0003F00350E1260450E222DE50E65CE6501A
:106F2C00800A096EDE50800A0958D8B0A0EF37F0FD
:106F3C00A2EF37F0C5EF37F020EE03F00350D9265F
:106F4C000450DA22DECF05F0DDCF06F003C0D9FF06
:106F5C0004C0DAFFDECF07F0DDCF08F005500724C0
:106F6C00D96E06500820DA6E01C0DFFF20EE03F068
:106F7C000350D9260450DA22DE2A000EDD2212003C
:106F8C00000E0001A26F000EA16F8C8E000EB4ECEF
:106F9C0036F092EC3DF0000E086E000E076EDDEC44
:106FAC0035F0000E0001A36F010EA06F0001A305C8
:106FBC00076EA00E086EA1C009F0A2C00AF0060E62
:106FCC0059EC35F0A3C022F0EB0E236E7F0E246E2D
:106FDC00070E266EE00E256EA1C027F0A2C028F089
:106FEC00020E296E060E46EC38F00001A3510E0F6E
:106FFC00076EA00E086EA1C009F0A2C00AF0060E22
:10700C0059EC35F00001A051A327A351D8B411EFCE
:10701C0038F013EF38F01CEF38F0720EA319D8A427
:10702C001AEF38F01CEF38F01FEF38F0A06DA051BC
:10703C00A32715EC35F000019F6F970E586E000ECC
:10704C00596EF80E5A6E7F0E5B6E9FC05CF05D6AD7
:10705C0027EC36F07C0E00019F19D8B438EF38F0CD
:10706C003AEF38F042EF38F092EC3DF0A1C007F067
:10707C00A2C008F0DDEC35F00400DCEF37F01200B4
:10708C002E6E2EC032F022C031F023C001F024C08D
:10709C0002F000EC36F001C02CF002C02DF0000E16
:1070AC00306E000E2F6EC8EF38F02950050DF3CF5F
:1070BC002AF0F4CF2BF032502A26000E2B222BBEB6
:1070CC0071EF38F02B5009E1A10E2A5CD8A071EFBA
:1070DC0038F073EF38F09BEF38F0000E326E295019
:1070EC00070DF3503124030F316E800E316481EFA4
:1070FC0038F083EF38F085EF38F0800E316E2F507A
:10710C0023242A6E305024202B6E2AC0F6FF2BC06D
:10711C00F7FF0800F550200AD8A497EF38F099EF44
:10712C0038F09BEF38F0C6EF38F031C011F02F502B
:10713C0023242A6E305024202B6E2AC0F6FF2BC03D
:10714C00F7FF0800F5CF12F025C013F026C014F09D
:10715C0027C015F028C016F029C017F0325024ECC7
:10716C003BF02950060DF3503224326EA00E3264DF
:10717C00C2EF38F0C4EF38F0C6EF38F0A00E326E24
:10718C002F4A302A2C502F5C2D503058D8A0D1EFDC
:10719C0038F0D3EF38F05BEF38F01200000E126EBF
:1071AC0008BEDDEF38F0DBEF38F0EFEF38F0081EFB
:1071BC00071E061E051E041E031E021E016C000E79
:1071CC000222032204220522062207220822010E93
:1071DC00126E10BEF6EF38F0F4EF38F006EF39F01F
:1071EC00101E0F1E0E1E0D1E0C1E0B1E0A1E096CF1
:1071FC00000E0A220B220C220D220E220F2210222C
:10720C0009500A100B100C100D100E100F1010104E
:10721C00D8B413EF39F015EF39F05DEF39F0010EFA
:10722C00116E23EF39F0D89009360A360B360C362E
:10723C000D360E360F361036112A10AE28EF39F0F7
:10724C002AEF39F019EF39F00950015C0A50025855
:10725C000B5003580C5004580D5005580E5006583E
:10726C000F50075810500858D8A03FEF39F041EF95
:10727C0039F051EF39F00950015E0A50025A0B50A7
:10728C00035A0C50045A0D50055A0E50065A0F5002
:10729C00075A1050085AD89010320F320E320D3255
:1072AC000C320B320A320932112E2AEF39F01250FD
:1072BC00D8B463EF39F065EF39F075EF39F0081E8B
:1072CC00071E061E051E041E031E021E016C000E68
:1072DC00022203220422052206220722082201C0D0
:1072EC0001F002C002F003C003F004C004F005C0BA
:1072FC0005F006C006F007C007F008C008F0120041
:10730C00000E126E10BE8FEF39F08DEF39F0A1EF39
:10731C0039F0101E0F1E0E1E0D1E0C1E0B1E0A1E0B
:10732C00096C000E0A220B220C220D220E220F22B7
:10733C001022010E126E08BEA8EF39F0A6EF39F03C
:10734C00BAEF39F0081E071E061E051E041E031E8A
:10735C00021E016C000E02220322042205220622C8
:10736C0007220822010E121A20EE13F0070EDE6A15
:10737C00E806FDE209500A100B100C100D100E104F
:10738C000F101010D8B4CDEF39F0CFEF39F021EF4A
:10739C003AF0010E116EDDEF39F0D89009360A364D
:1073AC000B360C360D360E360F361036112A10AE43
:1073BC00E2EF39F0E4EF39F0D3EF39F0D89013362F
:1073CC001436153616361736183619361A3609503D
:1073DC00015C0A5002580B5003580C5004580D50C5
:1073EC0005580E5006580F50075810500858D8A082
:1073FC0002EF3AF004EF3AF015EF3AF00950015E63
:10740C000A50025A0B50035A0C50045A0D50055A8C
:10741C000E50065A0F50075A1050085A1380D89025
:10742C0010320F320E320D320C320B320A3209325C
:10743C00112EE4EF39F01250D8B427EF3AF029EFBF
:10744C003AF039EF3AF01A1E191E181E171E161EA6
:10745C00151E141E136C000E142215221622172250
:10746C00182219221A2213C001F014C002F015C000
:10747C0003F016C004F017C005F018C006F019C0D0
:10748C0007F01AC008F0120042C0D9FF43C0DAFF5F
:10749C00DECFF6FFDDCFF7FF0800F550250AD8A4A4
:1074AC005AEF3AF05CEF3AF008EF3BF042C0D9FFEC
:1074BC0043C0DAFFDE2A000EDD22000E0001636FEE
:1074CC00000E626F62C05EF063C05FF06469656954
:1074DC0042C0D9FF43C0DAFFDECFF6FFDDCFF7FFA6
:1074EC000800F550640AD8B47EEF3AF080EF3AF019
:1074FC0092EF3AF042C0D9FF43C0DAFFDECFF6FF7D
:10750C00DDCFF7FF0800F550690AD8A490EF3AF0E8
:10751C0092EF3AF0D2EF3AF042C0D9FF43C0DAFF13
:10752C00DE2A000EDD2244C0D9FF45C0DAFFDFCFD2
:10753C0046F0020EDE26DFCF47F0000EDD2246C0FD
:10754C00D9FF47C0DAFFDECF48F0DDCF49F0000E9F
:10755C0049BEFF0E4A6E4B6E4C6E4D6E4E6E4F6EAC
:10756C0040C01CF041C01DF048C01EF049C01FF0C7
:10757C004AC020F04BC021F04CC022F04DC023F08B
:10758C004EC024F04FC025F023EC3CF01CC040F062
:10759C001DC041F023EF3BF042C0D9FF43C0DAFFDE
:1075AC00DECFF6FFDDCFF7FF0800F550250AD8A493
:1075BC00E2EF3AF0E4EF3AF0FBEF3AF042C0D9FFD9
:1075CC0043C0DAFFDE2A000EDD22000E026E250E0D
:1075DC00016E40C003F041C004F061EC37F0000EC6
:1075EC00416E010E406E23EF3BF042C0D9FF43C009
:1075FC00DAFFDE2A000EDD22000E416E000E406E18
:10760C0023EF3BF042C0D9FF43C0DAFFDECFF6FFD9
:10761C00DDCFF7FF0800F550016E026A40C003F0A1
:10762C0041C004F061EC37F042C0D9FF43C0DAFF2F
:10763C00DE2A000EDD22F5EF3AF012001F6EA00ECE
:10764C001F602BEF3BF02DEF3BF022EF3CF07F0E59
:10765C00116433EF3BF035EF3BF037EF3BF022EFAB
:10766C003CF01750D8A43DEF3BF03FEF3BF041EF1F
:10767C003BF0010E176E1F0E126447EF3BF049EF03
:10768C003BF051EF3BF07E0E12644FEF3BF051EFAD
:10769C003BF053EF3BF03F0E126E000E216E530E7B
:1076AC0012605BEF3BF05DEF3BF081EF3BF0600E67
:1076BC00186EFF0E196E21C01AF01B6A1ABE1B063B
:1076CC001250050D050E1C6E7E0E1D6EF3501C2601
:1076DC00F4501D221A501C261B501D2218501C261B
:1076EC0019501D221CC0F6FF1DC0F7FF0800F5CF76
:1076FC001EF0A3EF3BF0610E186EFE0E196E21C04A
:10770C001AF01B6A1ABE1B061250050D040E1C6ED5
:10771C007F0E1D6EF3501C26F4501D221A501C2691
:10772C001B501D2218501C2619501D221CC0F6FF80
:10773C001DC0F7FF0800F5CF1EF0000E206E1EA036
:10774C00AAEF3BF0ACEF3BF0D6EF3BF01704D8A41C
:10775C00B2EF3BF0B4EF3BF0C1EF3BF02050112403
:10776C00076E13C008F014C009F021501F242FEC31
:10777C0035F00AEF3CF020501702F3501124076E3D
:10778C0017C008F017C009F013C00AF014C00BF0B2
:10779C0021501702F3501F2481EC36F00AEF3CF015
:1077AC001350151809E114501618D8B4E0EF3BF03B
:1077BC00E2EF3BF00AEF3CF01704D8A4E8EF3BF003
:1077CC00EAEF3BF0F7EF3BF020501124076E15C0A9
:1077DC0008F016C009F021501F242FEC35F00AEFE9
:1077EC003CF020501702F3501124076E17C008F01C
:1077FC0017C009F015C00AF016C00BF02150170283
:10780C00F3501F2481EC36F0202AD8901E322050E1
:10781C00800A790FD8A015EF3CF017EF3CF0A5EFDC
:10782C003BF0212A2150800A7B0FD8A020EF3CF09E
:10783C0022EF3CF055EF3BF012001EC036F01FC09B
:10784C0037F020C038F021C039F022C03AF023C004
:10785C003BF024C03CF025C03DF03DBE38EF3CF081
:10786C003BEF3CF0010E3CEF3CF0000E346E356A01
:10787C0034503510D8B445EF3CF047EF3CF057EF9F
:10788C003CF03D1E3C1E3B1E3A1E391E381E371E58
:10789C00366C000E3722382239223A223B223C2207
:1078AC003D22000165BF5DEF3CF05FEF3CF060EF07
:1078BC003CF05E9265BF6DEF3CF0655106E16405EE
:1078CC00D8B06BEF3CF06DEF3CF073EF3CF0000E7A
:1078DC00316E010E306E77EF3CF064C030F065C055
:1078EC0031F062C032F063C033F034503510D8A49C
:1078FC0082EF3CF084EF3CF08BEF3CF05EA489EF20
:10790C003CF08BEF3CF08EEF3CF03206D8A0330607
:10791C00000E3F6E1F0E3E6E000E856F12EF3DF097
:10792C003E06D8A03F06660E3E24D96E000E3F20C0
:10793C00DA6E36C001F037C002F038C003F039C03F
:10794C0004F03AC005F03BC006F03CC007F03DC067
:10795C0008F00A0E096E000E0A6E000E0B6E000E79
:10796C000C6E000E0D6E000E0E6E000E0F6E000EE5
:10797C00106ED4EC38F001C026F002C027F003C022
:10798C0028F004C029F005C02AF006C02BF007C06F
:10799C002CF008C02DF026C013F028C014F078ECA1
:1079AC0035F01350300FDF6E3006D8A0310632069A
:1079BC00D8A0330636C001F037C002F038C003F04F
:1079CC0039C004F03AC005F03BC006F03CC007F0EB
:1079DC003DC008F00A0E096E000E0A6E000E0B6E0A
:1079EC00000E0C6E000E0D6E000E0E6E000E0F6E65
:1079FC00000E106E86EC39F001C036F002C037F084
:107A0C0003C038F004C039F005C03AF006C03BF0B2
:107A1C0007C03CF008C03DF03FBE1DEF3DF03F50AD
:107A2C0008E13E04D8A01DEF3DF01FEF3DF04FEFF5
:107A3C003DF036503710381039103A103B103C10CE
:107A4C003D10D8A42CEF3DF02EEF3DF096EF3CF01E
:107A5C0031BE3BEF3DF0315006E13004D8B039EF88
:107A6C003DF03BEF3DF096EF3CF033BE46EF3DF082
:107A7C00335008E13204D8A046EF3DF048EF3DF01A
:107A8C004FEF3DF05EB24DEF3DF04FEF3DF096EF16
:107A9C003CF034503510D8A456EF3DF058EF3DF083
:107AAC005FEF3DF05EA45DEF3DF05FEF3DF07DEFED
:107ABC003DF03E06D8A03F0634503510D8A469EFEF
:107ACC003DF06BEF3DF071EF3DF0000E2F6E2B0E85
:107ADC002E6E75EF3DF0000E2F6E2D0E2E6E660E77
:107AEC003E24D96E000E3F20DA6E2EC0DFFF1CC084
:107AFC0011F01DC012F0660E3E24136E000E3F20D6
:107B0C00146E32C015F033C016F000EC37F011C013
:107B1C001CF012C01DF012008C92050E046E0F0E9C
:107B2C00036EF10EE82EFED7032EFCD7042EFAD7E7
:107B3C0000F08C82050E046E0F0E036EF10EE82E13
:107B4C00FED7032EFCD7042EFAD700F08C90010E32
:107B5C00DFEC34F0050E046E0F0E036EF10EE82E02
:107B6C00FED7032EFCD7042EFAD700F0110EDFEC53
:107B7C0034F0050E046E0F0E036EF10EE82EFED7D8
:107B8C00032EFCD7042EFAD700F0B10EDFEC34F044
:107B9C00E40EF66E7F0EF76E0800F550D4EC34F060
:107BAC00E50EF66E7F0EF76E0800F550D4EC34F04F
:107BBC00E60EF66E7F0EF76E0800F550D4EC34F03E
:107BCC00B20EDFEC34F0E40EF66E7F0EF76E0800AA
:107BDC00F550D4EC34F0E50EF66E7F0EF76E08001F
:107BEC00F550D4EC34F0E60EF66E7F0EF76E08000E
:107BFC00F550D4EC34F0B30EDFEC34F0E40EF66E4A
:107C0C007F0EF76E0800F550D4EC34F0E50EF66EEE
:107C1C007F0EF76E0800F550D4EC34F0E60EF66EDD
:107C2C007F0EF76E0800F550D4EC34F0B40EDFEC98
:107C3C0034F0070ED4EC34F0C00EDFEC34F0A20EAE
:107C4C00D4EC34F0020ED4EC34F0840ED4EC34F0DA
:107C5C00C10EDFEC34F0C50ED4EC34F0C20EDFEC08
:107C6C0034F00A0ED4EC34F0000ED4EC34F0C30E25
:107C7C00DFEC34F08A0ED4EC34F02A0ED4EC34F071
:107C8C00C40EDFEC34F08A0ED4EC34F0EE0ED4ECEF
:107C9C0034F0C50EDFEC34F00E0ED4EC34F0200EC4
:107CAC00DFEC34F0360EDFEC34F0600ED4EC34F054
:107CBC003A0EDFEC34F0050ED4EC34F02A0EDFEC87
:107CCC0034F0000ED4EC34F0000ED4EC34F0000E92
:107CDC00D4EC34F07F0ED4EC34F02B0EDFEC34F01B
:107CEC00000ED4EC34F0000ED4EC34F0000ED4ECD6
:107CFC0034F09F0ED4EC34F0E00EDFEC34F0020ED6
:107D0C00D4EC34F01C0ED4EC34F0070ED4EC34F07C
:107D1C00120ED4EC34F0370ED4EC34F0320ED4EC2A
:107D2C0034F0290ED4EC34F02D0ED4EC34F0290EB2
:107D3C00D4EC34F0250ED4EC34F02B0ED4EC34F01F
:107D4C00390ED4EC34F0000ED4EC34F0010ED4EC3B
:107D5C0034F0030ED4EC34F0100ED4EC34F0E10E0D
:107D6C00DFEC34F0030ED4EC34F01D0ED4EC34F014
:107D7C00070ED4EC34F0060ED4EC34F02E0ED4EC0A
:107D8C0034F02C0ED4EC34F0290ED4EC34F02D0E4F
:107D9C00D4EC34F02E0ED4EC34F02E0ED4EC34F0B3
:107DAC00370ED4EC34F03F0ED4EC34F0000ED4EC9F
:107DBC0034F0000ED4EC34F0020ED4EC34F0100E8F
:107DCC00D4EC34F0130EDFEC34F0680E036EE40EDA
:107DDC00E82EFED7032EFCD700F000F0290EDFECC6
:107DEC0034F0680E036EE40EE82EFED7032EFCD79B
:107DFC0000F000F08C8E120000000000000000006B
:107E0C005F00000007000700147F147F14242A7FF2
:107E1C002A122313086462364956205000080703BF
:107E2C0000001C2241000041221C002A1C7F1C2A3D
:107E3C0008083E0808008070300008080808080090
:107E4C000060600020100804023E5149453E00428B
:107E5C007F400072494949462141494D331814125B
:107E6C007F1027454545393C4A4949314121110983
:107E7C00073649494936464949291E000014000075
:107E8C00004034000000081422411414141414008F
:107E9C004122140802015909063E415D594E7C12DB
:107EAC0011127C7F494949363E414141227F414173
:107EBC00413E7F494949417F090909013E414151F0
:107ECC00737F0808087F00417F41002040413F013B
:107EDC007F081422417F404040407F021C027F7F7C
:107EEC000408107F3E4141413E7F090909063E418D
:107EFC0051215E7F09192946264949493203017FE0
:107F0C0001033F4040403F1F2040201F3F4038406E
:107F1C003F631408146303047804036159494D4307
:107F2C00007F4141410204081020004141417F047F
:107F3C000201020440404040400003070800205466
:107F4C005478407F284444383844444428384444C6
:107F5C00287F385454541800087E090218A4A49C95
:107F6C00787F0804047800447D40002040403D00A8
:107F7C007F1028440000417F40007C047804787C0A
:107F8C00080404783844444438FC18242418182471
:107F9C002418FC7C08040408485454542404043F5A
:107FAC0044243C4040207C1C2040201C3C40304061
:107FBC003C44281028444C9090907C4464544C448D
:107FCC00000836410000007700000041360800022E
:107FDC000102040200400100012C2D005080A0661B
:107FEC00756E537461636B4C6162730049443A253E
:037FFC006400001E
:020000040020DA
:08000000FFFFFFFFFFFFFFFF00
:020000040030CA
:0E000000FF081F1EFF0B81FF0FC00FE00F4017
:00000001FF
